:10000000C01A002071FE0200F94A0000FD4A0000FB
:10001000A70A02020002000004180FAC90679501C5
:1000200000000000000000000000000000000000D0
:100030000000000030F50300000000000000000098
:100040000000000000000000FFFFFFFFFFFFFFFFB8
:10005000FFFFFFFFFFFFFFFFFFFFFFFFFFFFFFFFB0
:1000600000700F000000000000000000FFFFFFFF15
:10007000FFFFFFFF1C000000000000000000000068
:100080000000000000000000404F0020404F002012
:10009000C01A0020144F040028C303006011002080
:0C00A000241100200000100000000000EF
:10020000C01A002071FE0200F94A0000FD4A0000F9
:100210005DB80000014B0000094B00006DFE0200BC
:100220006DFE02006DFE02006DFE02006DFE02001A
:100230000D4B00006DFE02006DFE02006DFE02001F
:1002400055670000C57F0300ED4D0000804B0000A6
:100250003D77030031800300D17F0300E97F030075
:10026000C97F0300755D0000495E0000797D0000D4
:100270005D410100804B0000804B00000D29000013
:10028000804B0000804B00006D5E0000804B000042
:10029000804B0000804B0000804B0000804B000032
:1002A000804B0000804B0000804B0000804B000022
:1002B00035800300CD7F03001565000075800300C5
:1002C000804B00005D6A0300804B0000804B000003
:1002D000804B0000804B0000804B0000804B0000F2
:1002E000804B0000804B0000804B0000804B0000E2
:1002F000804B0000804B0000804B0000804B0000D2
:0C030000804B0000804B00006DFE0200EE
:10030C00F8B500BFF8BC08BC9E467047F8B500BFF6
:10031C00F8BC08BC9E46704710B5054C237833B921
:10032C00044B13B10448AFF300800123237010BDBC
:10033C009C210020000000003048040008B5034B4D
:10034C001BB103490348AFF3008008BD0000000057
:10035C00A021002030480400154B002B08BF134B84
:10036C009D46A3F5803A00218B460F461348144A4C
:10037C00121A3BF0E7FE0F4B002B00D098470E4BA8
:10038C00002B00D098470020002104000D000D48E0
:10039C00002802D00C48AFF300803BF08DFE20000B
:1003AC00290014F0EBF83BF073FE00BF00000800CE
:1003BC00C01A002000000000000000009C2100205A
:1003CC00404F002000000000000000001FB501237A
:1003DC00009300220DF10F03062116F0AFFB20B99C
:1003EC009DF80F3023B104F0E3FB05B05DF804FB7E
:1003FC0004F0F0FBF9E7000030B5154D85B0002492
:10040C002C7015F001F8022817D100900DF10E0395
:10041C0022460321012016F091FBBDF80E0048B1D5
:10042C00204604F0E9FB4FF47A6128461FF08AFD60
:10043C0005B030BD04F0BCFBFAE711F0FFFB054B37
:10044C000090054A0549012017F0C6FDF0E700BFF2
:10045C00A43E0020E1E003008FC3030094C303001B
:10046C0008B514F0D1FF02280CD1074B0022012053
:10047C001A7009F0FBFB05490246BDE80840012053
:10048C0017F0AABD08BD00BF9C3E0020F3C30300BB
:10049C00912808B504D1002004F09CFB002008BD75
:1004AC009028FBD1002004F083FB02481FF03EFD96
:1004BC00F4E700BF9C3E002001481FF037BD00BF91
:1004CC00A43E002013B50E4B009004460D4A0E4975
:1004DC00012017F081FD8CB11AF07CFD024618B199
:1004EC000A49012017F078FD002010F0B7FD084BE9
:1004FC000090084A0449012017F06EFD02B010BDAF
:10050C00B9C303008FC3030094C30300C2C3030029
:10051C00E1E00300EEC3030007B500230093044A97
:10052C00044B0549012017F057FD03B05DF804FB9F
:10053C00A8C30300B9C3030094C30300FFF746BF6D
:10054C0009B9FFF743BF704711B902481FF0EEBC61
:10055C00704700BF9C3E002070B5074E05460C4608
:10056C0044B115F8012B31460120013C17F034FD44
:10057C00E4B2F5E770BD00BFA42004002DE9F04102
:10058C00ADF5447D074688461546FF21C82292A842
:10059C001E46CA9C3BF0D6FD27B1B8F1000F01D026
:1005AC0004B135B94FF0FF3323600DF5447DBDE840
:1005BC00F08121A810F0E4FA002121A810F0E8FA4B
:1005CC004246394621A810F0EEFA20600028ECD102
:1005DC0008A921A810F0F6FA2368002BE5D13CA855
:1005EC000EF062FC67A80EF05FFC3CA80FF0D8F888
:1005FC0067A80FF0D5F803213CA810F0C7F92060CC
:10060C0020B13249012017F0E7FCCEE7032167A89F
:10061C0010F0BCF920600028F3D104238DF8403091
:10062C002B492C4B0DF1410253F8040B42F8040BEF
:10063C008B42F9D1264B28490DF1610253F8040B7A
:10064C0042F8040B8B42F9D1412310AA5EA93CA8B5
:10065C000FF03EFB206008B12049D3E75EA93CA80F
:10066C000FF06EFB206008B11D49CBE720220096ED
:10067C002B460DEB02013CA80EF0C6FB206018B116
:10068C001849012017F0A8FC20210DEB0100FFF701
:10069C0063FF22681449012017F09EFC13490120C6
:1006AC0017F09AFC02A82021FFF756FF10490120F1
:1006BC0017F092FC202105A8FFF74EFF3CA80EF086
:1006CC00F5FB21A810F062FA6FE700BF38C40300F5
:1006DC006A43E00F4A43E00F8A43E00F4FC4030024
:1006EC0066C403007EC40300A2C40300D305040047
:1006FC00ADC4030070B5144B9EB004AA03F12006E0
:10070C00154618685968144603C40833B342224688
:10071C00F7D11EAC47220D490CA83BF008FD34F96B
:10072C006A2D0B49012017F057FC47230CAA2846C9
:10073C0000942021FFF722FFBDF90E20044901206F
:10074C0017F04AFC1EB070BD28C3030048C3030059
:10075C0014C4030038B5C37B05460BB1832038BDE8
:10076C00C47C2CB902F024F920B9EB7B002BF5D119
:10077C008120F4E72046F2E7C37B10B504460BB1A9
:10078C00832010BDC37C012B13D003D3402B13D07B
:10079C008120F6E7017D82898B1C9A4218D38068F0
:1007AC0016F06AFF0BF0CEF8A0B9E37B002BE7D173
:1007BC00EEE70BF0DFF8F7E7037D81899A1C914295
:1007CC0006D38268591CD05C515C1AF091FEEBE7A1
:1007DC008020D6E70020D4E7F8B5C37B04460BB1E4
:1007EC008320F8BDC37C052B29D8DFE803F0032A4E
:1007FC0035414C4F057D8289AB1C9A4201D2802039
:10080C00EFE7ADB22946806816F036FF0646A068C1
:10081C00A7890235284416F047FF28440130874247
:10082C00EDD32946A289A06816F02CFF014630466C
:10083C000AF024FD002848D1E37B002BD0D1812085
:10084C00CFE7017D82898B1C9A42D8D3806816F041
:10085C0013FF0AF033FDEDE7037D81895A1C9142A9
:10086C00CDD38268591C1144D05C0AF057FDE1E7E6
:10087C00017D82898B1C9A42C1D3806816F0FCFEE4
:10088C000AF0CEFDD6E70AF027FED3E7057D828974
:10089C00AB1C9A42B3D3ADB22946806816F0ECFE7D
:1008AC000646A068A7890235284416F0FDFE2844A8
:1008BC0001308742A3D32946A289A06816F0E2FE34
:1008CC00014630460AF050FEB4E7002089E7C37BAE
:1008DC002DE9F7430446002B40F03E81C37C042BEA
:1008EC0000F0B7800BD8012B00F088803FD3022B8F
:1008FC0000F09480032B00F0A18081203DE0402B80
:10090C0000F0DA800FD8052B00F0B380062BF4D161
:10091C00017D82898B1C9A422ED3806816F0ACFE26
:10092C0012F058FC61E0412B00F00581422BE4D120
:10093C00037D8289D91D8A421ED39DB28068691CB1
:10094C00C65C16F099FEEB1C0746A068A28910F84D
:10095C000380291D16F090FE0635A3685B5D00939D
:10096C0042460346394630461BF0AAF83DE0057D69
:10097C008289AB1C9A4203D2802003B0BDE8F0837D
:10098C00ADB22946806816F077FEA289E91C8A422E
:10099C00064605F10203EFD3881C8242ECD3A06813
:1009AC00C75C16F069FE8046A068B4F80C9005355B
:1009BC00284416F079FE284401308145DCD32946C1
:1009CC00A289A06816F05EFE8146A068284416F045
:1009DC006BFE01300544A06810FA85F500954B4676
:1009EC0042463946304613F00DF8002840F0B680E8
:1009FC00E37B002B14BF83208120BEE7057D828919
:100A0C00EB1C9A42B8D3ADB22946806816F034FE7E
:100A1C000235A368595D13F0DBF8E6E7057D8289A2
:100A2C00EB1C9A42A8D3ADB22946806816F024FE7E
:100A3C000235A368595D12F0F7FAD6E7017D828979
:100A4C008B1C9A4298D3806816F016FE12F05AFB53
:100A5C00CBE7057D8289EB1C9A428DD3ADB229463A
:100A6C00806816F009FE0235A368595D12F0FEFC91
:100A7C00BBE7057D8289AB1C9A42FFF47DAFADB21A
:100A8C002946806816F0F8FDA289E91C8A420646C0
:100A9C0005F10203FFF470AFA068C75C8B1C9A428F
:100AAC0007D316F0E9FD02463946304612F0B6FD82
:100ABC009BE74FF6FF72F7E7057D8289AB1C9A42E4
:100ACC00FFF45AAFADB22946806816F0D5FDA28965
:100ADC00E91C8A42064605F10203FFF44DAF881C5F
:100AEC008242FFF449AFA068C75C16F0C5FD804692
:100AFC00A068B4F80C900535284416F0D5FD2844B0
:100B0C0001308145FFF438AFA289A068294616F060
:100B1C00B9FD8146A068284416F0C6FD0130054495
:100B2C00A06810FA85F500954B464246394630468A
:100B3C001AF0AEFF59E7057D8289EB1C9A42FFF44F
:100B4C001BAFADB22946806816F096FD0235A3683E
:100B5C00595D1AF0ADFF48E783200EE700200CE743
:100B6C00F8B5C37B04460BB18320F8BDC37C022BC4
:100B7C0021D004D8ABB1012B1AD08120F5E7412B41
:100B8C001CD0422B1DD0402BF7D1037D81899A1CA0
:100B9C0091422DD38268591CD05C515C1AF0F2FD45
:100BAC0001E011F013FA28BBE37B002BE5D0DBE767
:100BBC0011F022FAF7E711F035FAF4E71AF028FEF3
:100BCC00F1E7037D8289591D8A4211D39DB2806859
:100BDC00691CC65C16F050FDA2890746E91CA0688A
:100BEC0016F04AFD3946024630461AF051FEDAE755
:100BFC008020BAE70020B8E7C37BF7B50446002B8A
:100C0C0040F0D180C37C072B00F2CF80DFE813F0DB
:100C1C0008003700590085009A00A900B500C800EB
:100C2C00037D8289591C8A42C0F0C1809DB2691C27
:100C3C00881C8242C0F0BB80A068C75C16F01CFD0B
:100C4C00EB1CA6895A1C964222BFA268D25C2B1DB3
:100C5C00014603F1010038BFFF2286422ABFA0687B
:100C6C00FF23C35C38460BF04BFC002840F0A180FE
:100C7C00E37B002B14BF8320812003B0F0BD067DE5
:100C8C008589731C9D42C0F09280B7B2BA1C954204
:100C9C0007F10103C0F08B808068C15C1346013200
:100CAC00954224BFC25CFB1C03F1010738BFFF2235
:100CBC00BD4228BFC35C805D38BFFF230BF03DFCF9
:100CCC00D3E7037D8289591C8A4270D39DB2A91C3B
:100CDC008A4205F101076AD3881C824267D3A06857
:100CEC00C65CC75D16F0C8FC291DB4F80CC04B1CC3
:100CFC009C4522BFA3685B5C691D024601F10100A3
:100D0C0038BFFF2384452ABFA068FF21415C0091B6
:100D1C00304639460BF029FCA7E7027D8189501C2F
:100D2C00814293B222BFA0680133805C03F10102BF
:100D3C0038BFFF2091422ABFA268FF21D15C0BF083
:100D4C0030FC92E7017D8289CB1C9A422FD38068BC
:100D5C00455C013116F090FC014628460BF0DEFB99
:100D6C0083E7037D81899A1C914220D38268591CA8
:100D7C00D05C515C0BF0EDFB77E7037D8289191D8C
:100D8C008A4214D3806899B2C55C4B1C0231C65C94
:100D9C0016F072FC3146024628460BF0F4FB64E771
:100DAC000BF007FC61E7832067E7812065E7802073
:100DBC0063E7002061E72DE9F04FC37B8FB0044659
:100DCC001BB183200FB0BDE8F08FC37C0B2B4DD82B
:100DDC00DFE813F00C00550030014C004C004C00C7
:100DEC0057014C004C004C00C301D701037D828994
:100DFC00581C824224BFA06810F8038099B234BFFB
:100E0C004FF0FF08013118F0070509D10F1DBA4248
:100E1C002FD3A06816F02AFCB9B20646FF2711E0C2
:100E2C00022D25D101F108039A42C0F0DF81A5689B
:100E3C000D4499B24B1C9A421BD3A2684FF0FF365B
:100E4C00575C99B2A2890B1D9A4215D3A06816F073
:100E5C000DFC00903B462A463146404609F092F97B
:100E6C00002840F0C181E37B002BAAD18120A9E7A7
:100E7C0000254FF0FF36D1E74FF0FF30E9E7037D57
:100E8C0082899DB203339A4218D32946806816F0A2
:100E9C00F0FB0335064616F0070712D1A28905F1BF
:100EAC0004084245C0F0AD802946A06816F0DEFB70
:100EBC001FFA88F583464FF0FF0A18E04FF0FF3613
:100ECC00E9E7022F40F09C80A28905F108039A42C1
:100EDC00C0F08E81A7682F449DB26B1C9A42C0F063
:100EEC009080A2684FF0FF3B12F805A09DB216F05F
:100EFC00100340F0898016F0600903D0B9F1600F3F
:100F0C0040F07B81A28905F108039A42C0F07281FE
:100F1C00A168294409919DB2B9F1000F03D0B9F130
:100F2C00600F40F06B81AB1C9A42C0F06C8129467B
:100F3C00A0680A9316F0A0FB0A9B80469DB2B9F1FB
:100F4C00200F02D0B9F1400F62D1A289AB1C9A429A
:100F5C000A935DD32946A06816F08EFB0A9B814646
:100F6C009DB206F01803082B55D1A2896B1C9A422E
:100F7C0051D3A268525D0A929DB271044ED5A289DA
:100F8C002B1D9A424AD32946A0680C9316F06EFB8F
:100F9C000C9B0B909DB216F4004344D0A28905F132
:100FAC0010039A423ED3A2682A440C929DB2F203DB
:100FBC003BD5A289AB1C9A4237D32946A0680D9326
:100FCC0016F05AFB0D9B9DB2B30331D5A2896B1C55
:100FDC009A422DD3A3685B5DCDF80480CDE906035E
:100FEC000C9B05930B9B04930A9BCDE90293099BE5
:100FFC0000933A4653465946304609F0C5F82FE758
:10100C0000274FF0FF3B56E700234FF6FF7809937C
:10101C004FF6FF79A5E7FF230A93AEE74FF0FF33B6
:10102C000B93B8E700230C93C1E74FF6FF70CBE7A7
:10103C00FF23D1E7017D8289481C824224BFA0682E
:10104C00455C8BB234BFFF250133A90714D59E1C18
:10105C00B24211D31946A06816F00EFBB3B201468A
:10106C00EA060CD5A0895A1C904208D3A268D25C1F
:10107C00284609F043F8F3E64FF6FF71F0E7FF223C
:10108C00F6E7037D82898068591C8A429DB228BF8D
:10109C00013505F102062CBF10F803804FF0FF0854
:1010AC00B24233D3294616F0E7FAB5B28146A2898B
:1010BC00A0686B1C9A422ABF10F805A04FF0FF0ADB
:1010CC009DB218F0070624D105F1040B5A4530D314
:1010DC00294616F0CBFA1FFA8BF507464FF0FF0B9B
:1010EC00A289A0680A92691C8A4223BF435D0993B6
:1010FC008DB2FF23284438BF099316F0D5FA0A9A0B
:10110C0028440130824217D280205BE64FF6FF79EB
:10111C00CDE7022E0CD105F108039A4271D3461982
:10112C009DB210F805B00135ADB24FF0FF37D7E7DF
:10113C0000264FF0FF37D1E7A289A068294616F0A8
:10114C00A1FA099B0390CDE901B300963B465246A8
:10115C004946404609F0AEF882E6007DA289031D9F
:10116C009A42D1D386B2A568F31CB21C711C04360A
:10117C00EB5CAA5C695C285C3544009509F058F975
:10118C006EE6037D8289591C8A42BDD38068C65C99
:10119C009FB216F01F0507F1010104D116F066FA93
:1011AC00791D002206E0022D1BD1421807F109011E
:1011BC004FF0FF3006F00703022B01BFA3684D1C54
:1011CC005B5CA9B206F0180518BFFF23082D0ABFF7
:1011DC00A568FF256D5C00950146304609F016FAAE
:1011EC003EE64FF0FF30DCE70020EBE5002521E682
:1011FC00002772E6002309938EE609934FF6FF78D9
:10120C009DE600268DE7B9F1200F4FF6FF787FF4AD
:10121C0099AEFDE62DE9F043C37B85B00446002B67
:10122C0040F0A482C37C062B00F05C813AD8022BE0
:10123C0000F0EB8007D8002B00F08F80012B00F022
:10124C00C48081208FE0042B067D858900F02A81E3
:10125C0040F20481731C9D42C0F08480B7B207F148
:10126C00010C0CF101039D427CD3FA1C954207F151
:10127C00020377D38068F91CC25C4B1C9D4224BFCF
:10128C00435C391D01F1010738BFFF23BD4228BF64
:10129C00455C10F80C10805D38BFFF25009502F0FE
:1012AC00BBF889E00A2B00F0AA8139D8082B017D04
:1012BC00828900F07B8140F244818B1C9A4251D38D
:1012CC008DB22946806816F0D7F9A91CA2898B1C0F
:1012DC009A42074646D3A06816F0CEF9291DA2897A
:1012EC008B1C9A4280463DD3A06816F0C5F9A91D07
:1012FC00A6894B1C9E4222BFA3685B5CE91D02467B
:10130C0001F1010038BFFF2386422ABFA068FF21EC
:10131C00415C009138B20FFA88F102F095F94BE07C
:10132C004B2B00F097814C2B00F0D481472B88D1AC
:10133C00027D8189501C814293B222BFA068013387
:10134C00805C03F1010238BFFF2091422ABFA268E2
:10135C00FF21D15C02F01AFB2EE0037D8289591C1F
:10136C008A4203D2802005B0BDE8F0839DB2A91C4F
:10137C008A4205F10107F5D3881C8242F2D3A0689A
:10138C00C65CC75D16F078F9291DB4F80CC04B1C6F
:10139C009C4522BFA3685B5C691D024601F10100FC
:1013AC0038BFFF2384452ABFA068FF21415C009110
:1013BC003046394601F022FF002840F0D981E37B0A
:1013CC00002B14BF83208120CDE7067D8589731CFB
:1013DC009D42C7D3B7B2BA1C954207F10103C1D3E2
:1013EC008068C15C13460132954224BFC25CFB1C71
:1013FC0003F1010738BFFF22BD4228BFC35C805DEB
:10140C0038BFFF2301F046FED6E7077D85897B1C9C
:10141C009D42A7D3BEB206F1010C0CF101039D4213
:10142C00A0D3F21C954206F102039BD38068F11CF9
:10143C00C25C4B1C9D4224BF435C311D01F1010673
:10144C0038BFFF23B54228BF455C10F80C10C05DB7
:10145C0038BFFF25009501F083FFADE7731C9D425B
:10146C0080D3B7B2791C8B1C9D42FFF47BAF806894
:10147C002A46865D16F000F9FB1CA5895A1C95427C
:10148C0022BFA268D25C3B1D014603F1010038BFAC
:10149C00FF2285422ABFA068FF23C35C304601F0BF
:1014AC0015FF89E7731C9D42FFF45CAFB7B2BA1C01
:1014BC00954207F10103FFF455AF8068C15C1346F8
:1014CC000132954224BFC25CFB1C03F1010738BFFB
:1014DC00FF22BD4228BFC35C805D38BFFF2301F0F3
:1014EC003BFE69E7037D8289591C8A42FFF43AAFBF
:1014FC009DB2A91C8A4205F10107FFF433AF881C89
:10150C008242FFF42FAFA068C65CC75D16F0B4F83A
:10151C00291DB4F80CC04B1C9C4522BFA3685B5C16
:10152C00691D024601F1010038BFFF2384452ABF23
:10153C00A068FF21415C00913046394601F03CFD2A
:10154C003AE78B1C9A42FFF40DAF8DB229468068A6
:10155C0016F092F8A91CA2898B1C9A420746FFF43C
:10156C0001AFA06816F088F8291DA2898B1C9A423D
:10157C008046FFF4F7AEA06816F07EF8A91DA68988
:10158C004B1C9E4222BFA3685B5CE91D024601F125
:10159C00010038BFFF2386422ABFA068FF21415CAF
:1015AC0000913846414601F08FFF05E78B1C9A42AB
:1015BC00FFF4D8AE8DB22946806816F05DF8A91CF0
:1015CC00A2898B1C9A420746FFF4CCAEA06816F099
:1015DC0053F82B1DA6895A1C964222BFA268D25CD6
:1015EC006B1D01B203F1010038BFFF2286422ABFF6
:1015FC00A068FF23C35C38B201F0BAFFDCE6057DBE
:10160C008289AB1C9A42FFF4ADAEADB2294680681C
:10161C0016F032F8A91CA2898B1C9A420746FFF4DB
:10162C00A1AEA06816F028F82B1DA6895A1C96426C
:10163C0022BFA268D25C6B1D014603F1010038BFCA
:10164C00FF2286422ABFA068FF23C35C384602F003
:10165C0075F8B1E6037D8289591C8A42FFF482AE8B
:10166C009DB2691C881C8242FFF47CAEA068C65CEB
:10167C0016F002F8E91CA2898B1C9A420746FFF46B
:10168C0071AEA06815F0F8FF691DA2898B1C9A42F7
:10169C008046FFF467AEA06815F0EEFFEA1DB4F8C3
:1016AC000CC0511C8C4522BFA168895C05F1080255
:1016BC00034602F1010038BFFF21844526BFA06814
:1016CC00825CFF22CDE9001230464246394602F0D8
:1016DC004FF871E6037D8289591C8A42FFF442AEB1
:1016EC009DB2691C881C8242FFF43CAEA068C65CAB
:1016FC0015F0C2FFE91CA2898B1C9A420746FFF425
:10170C0031AEA06815F0B8FF691DA2898B1C9A42F6
:10171C008046FFF427AEA06815F0AEFFE91DA28944
:10172C008B1C9A428146FFF41DAEA06815F0A4FFF5
:10173C0005F10902A389511C8B4222BFA168895C67
:10174C0005F10A0202F1010538BFFF21AB4224BFAB
:10175C00A3689A5C009038BFFF22CDE901124B467A
:10176C0042463946304602F069F825E68320FAE510
:10177C000020F8E5C37B10B504460BB1832010BDE7
:10178C00C37C412B03D0422B0FD08120F7E7037D84
:10179C0081895A1C914212D38268D05C1AF082FA69
:1017AC0078B9E37B002BE9D1EFE7037D81895A1CE3
:1017BC00914204D38268D05C1AF0BCFAF0E7802026
:1017CC00DDE70020DBE738B5C37B002B437D14BF7E
:1017DC008325C325012B04460FD10368028A59883F
:1017EC00587914F063FB40B123685B88212B16D128
:1017FC002046BDE83840FFF7DEBA637D7BB923682D
:10180C00228A5988587914F048FB40B123685B88C8
:10181C00052B2AD005D8032B1DD021D8B3B12846CF
:10182C0038BD082B26D006D8062BF8D12046BDE8AB
:10183C003840FFF795B9B3F5407F20D0B3F5805F02
:10184C00EDD12046BDE83840FFF794BF2046BDE8F7
:10185C003840FEF77FBF2046BDE83840FEF78CBF0E
:10186C002046BDE83840FEF7B7BF2046BDE83840FB
:10187C00FFF72DB82046BDE83840FFF7BDB920462C
:10188C00BDE83840FFF7C6BC704701207047012007
:10189C007047012070477047002070470020704748
:1018AC0000207047002070470020704700207047D0
:1018BC000120704701207047B52070470020704709
:1018CC0000207047002070470020704770470020B0
:1018DC007047002070477047002070478420704785
:1018EC0070477047704770477047704770470020CB
:1018FC00704770477047704700207047704700F082
:10190C0025BD03207047002070470000034B1B6867
:10191C001878012808BF0220704700BF4C37002000
:10192C0000207047034A03460120C3E9032000222C
:10193C001A7070470100FEFF704770477047002017
:10194C007047002070470020704700207047704798
:10195C00002070477047002070470020704700201F
:10196C00704700207047002070470020704700200F
:10197C007047002070477047B520704700207047B3
:10198C000020704770470020704770477047B520A3
:10199C00704770477047704700207047704770471A
:1019AC00094A0023FF21137082F8783082F86530E1
:1019BC0082F8773082F8793082F87A1082F87B30AE
:1019CC00024A1360704700BFB8210020AC3E0020D3
:1019DC00F8B50D468C680A6828490646202003F0A5
:1019EC0050FF6B687BB92649202003F04AFF20206A
:1019FC0012F07AF92349202003F058FF2020BDE88B
:101A0C00F84012F071B9002EF1D01F4D1F4E204F2F
:101A1C00013C14F8013F23B91A49202003F046FF7A
:101A2C00E5E7752B18D0762B18D0772B18D0732BA5
:101A3C0018D0722B18D0712B18D0622B18D06E2B9B
:101A4C0018D02A2B18D01349134A212B18BF114632
:101A5C00202003F016FFDCE72946F9E73146F7E7CB
:101A6C003946F5E70D49F3E70D49F1E70D49EFE785
:101A7C000D49EDE70D49EBE70D49E9E7891B04003A
:101A8C0043C50300F4C4030001C50300F5C40300FF
:101A9C000CC503004DC503004AC5030018C503005F
:101AAC0022C503002DC5030038C5030042C5030041
:101ABC0047C50300F0B5214A92F87B30184452FA1E
:101ACC0080F01F4B90F865C090F866501F78A5EB1E
:101ADC000C050026EDB23046F4B2A54225D90CEB2C
:101AEC00060313445B7811B10CB92D2B17D0782B4E
:101AFC001FD0582B05D108B137240AE0013C012C2A
:101B0C0014D9602B17D8402BF6D83A2B34BF30247D
:101B1C0000241B1BDBB29F4203D900FB07300136AC
:101B2C00DAE7052382F879300020F0BD1027002079
:101B3C00F5E70028E2D05724EBE700BFB8210020DE
:101B4C00DC1A0020FFF72CBF034B93F8770093F8B7
:101B5C007B30C01AC0B27047B82100200021FFF7BB
:101B6C00A9BF000010B50A4B93F87B20024453FA2E
:101B7C0082F292F8652013445C78A4F12D0359424B
:101B8C005941FFF797FF2D2C08BF404210BD00BFF5
:101B9C00B821002030B50C4A92F87B300344C04386
:101BAC00DBB2C00F39B1D51895F8664095F8655081
:101BBC00641B241A0C7042FA83F393F865301844B2
:101BCC00024B184430BD00BFB8210020B9210020C1
:101BDC00F7B50E460DF1070115461C46FFF7DAFF67
:101BEC009DF80730AB42074688BF8DF807501CB1F3
:101BFC009DF807402C1BE4B222463046002100F031
:101C0C0079FB30199DF80720394600F017FB9DF839
:101C1C00070003B0F0BD38B508220C460123FFF7CE
:101C2C00D7FF04F10803621E043413F8011D12F8E7
:101C3C00015F1D70A3421170F7D138BD38B5014654
:101C4C0005460120FFF7C4FED5E901436CB91C46DB
:101C5C00084D236863B12946202003F012FE21466B
:101C6C000020FFF7B5FE0C34F3E71B786E2BEFD09A
:101C7C0038BD00BFA51D040008B50449202003F0A1
:101C8C0000FE2020BDE8084012F02EB8B5C40300B9
:101C9C0038B5FFF7F1FF064D002461190C346319B8
:101CAC0053F80C3C03B938BD0020FFF791FEF4E764
:101CBC0000D603002DE9F84F1F4B204D53F8202080
:101CCC001F49202003F0DDFD2B681BB9BDE8F84F40
:101CDC00FFF7DEBF1B4FDFF874A0FFF7CDFF002628
:101CEC00B94697F87B30F4B2013B9C4204DB286880
:101CFC00BDE8F84FFFF7A2BF47FA86F34C4493F8C0
:101D0C0065800023C84494F8662094F86510521A34
:101D1C0003F1010BD2B2DBB2934205D30A49202066
:101D2C0003F0AFFD0136DCE7434451465A782020DE
:101D3C0003F0A7FD5B46E6E7E01A0020AC3E00206E
:101D4C00B0C40300B8210020A61D04002820040004
:101D5C002DE9F74F884C94F87730002B00F0A280D7
:101D6C00864B1B7813F0010F04F101071FD00025DF
:101D7C00834E14E06319202093F8662093F86530A5
:101D8C00D21A44FA85F3D2B293F86510394411F0A3
:101D9C00A6FF3146202003F074FD0135EDB294F816
:101DAC007730AB42E6D87749202003F06AFD94F8EF
:101DBC0077300193DFF8D8E1734B002671461EF89B
:101DCC00012B91F801C04FF00008ACEB020C07EBB3
:101DDC00020A5FFA8CFC45461868002852D001387C
:101DEC00D14619E02AB9002D4AD04FF001080C3326
:101DFC00F2E719F8011BA1F1410BBBF1190F98BFC8
:101E0C002031A2F1410B98BFC9B2BBF1190F9CBF95
:101E1C002032D2B28A42EAD1A9EB0A01614510F80C
:101E2C00012FDFD1002ADED11D46584B1D6094F8DE
:101E3C007B30013384F87B30D5E901230136F6B2CF
:101E4C00002A35D01B786E2B31D03F2B23D04FF08E
:101E5C000009C8464FF0070B042394F87710AA68C2
:101E6C00B14212F808702BD8AFB1904498F80130F9
:101E7C002A2B10D0212F1CBF032384F879300AE0C1
:101E8C001D46B4E7B8F1000F01D1002DCDD10223CE
:101E9C0084F87930002594F87900002869D16868B5
:101EAC0015F0B8F803B0BDE8F04FFFF779BD134655
:101EBC00019AB24282D8032284F879201D46EAE7BF
:101ECC00732F09D8712F0BD2212F1FD0622F3CD02A
:101EDC00002F4BD1032246E0A7F17502022A45D808
:101EEC00752F29D0762F2AD0732F2BD0722F47F62F
:101EFC00FF7A18BF4FF0FF3A012148460193FFF7D4
:101F0C00D9FD5045019B01D984F87930AA68424427
:101F1C0052782A2A94F879201CBF08F101085FFA3C
:101F2C0088F8002AB7D1212F1FBF013609F101090A
:101F3C00F6B25FFA89F990E74FF0FF0ADCE74FF64B
:101F4C00FF7AD9E74FF07F0AD6E794F87B204A4412
:101F5C0054FA82F292F8652022445278222AD5D083
:101F6C007B2AD3D0052284F87920CFE784F879B086
:101F7C00CCE7FFF79FFE95E7B82100203422002024
:101F8C00A61D0400F2C4030000D60300AC3E0020E2
:101F9C001D2200202DE9F3415E4C5F4F06460D4695
:101FAC004FF0000866B90DF10701284611F092FEBA
:101FBC0078B1262800F0A980012384F879304BE011
:101FCC00002D00F0A28016F8013B8DF80730013D82
:101FDC00EDB23A789DF807303B700D2A01D10A2BEF
:101FEC00E0D00D2B0CD0A3F10A02514251412278C2
:101FFC008846042AD6D8DFE802F0051D263C3100BD
:10200C000121F4E721B1FFF7A3FE4FF00108C9E766
:10201C00202B63D0222B07D10223237094F8782035
:10202C00642A5DD10623C8E77B2B01D10323F4E797
:10203C000123F2E709B9202BF0D194F87730112B5A
:10204C003FD10323B9E7222BF7D00029E6D0052393
:10205C0084F879304FF0010804232370B8F1000F95
:10206C00A0D094F8790008B1FFF724FEFFF798FC94
:10207C0098E77D2B94F87A0003D1FF28DDD0052357
:10208C009BE7602B13D8402B13D8392B8CBF002225
:10209C0030229A1AD2B20F2A10D8FF280BD002EB9A
:1020AC000012FF238DF8072084F87A30B6E7572208
:1020BC00EFE73722EDE784F87A2073E7202BDED1A7
:1020CC0070E70133DBB284F87730234494F878203E
:1020DC0083F8652000232370002994D1884661E79A
:1020EC002378012B09D19DF80730A3F1410119295F
:1020FC009CBF2033DBB28DF80730A3189DF8071076
:10210C005970013284F878204CE7404602B0BDE8A3
:10211C00F08100BFB82100203522002049BA89B2D5
:10212C004840C0F303114140080380B24840C3B299
:10213C0080EA431070471AF0C9B87047704770476F
:10214C0070477047704770477047704770477047CB
:10215C0070477047704700207047704770470020E9
:10216C0070477047704700207047704770470020D9
:10217C0070477047012070470120704770477047C7
:10218C007047704770477047704700002DE9F04763
:10219C00204DDFF8A090DFF8A0A000245FFA84F8AF
:1021AC0040461DF089FCFF2806460CD122461A49F0
:1021BC00287803F07BFB2878013411F095FD142C62
:1021CC00ECD1BDE8F087154B59F82420144947B2DF
:1021DC0013EA270338BF5346287803F067FB002F18
:1021EC00E9DA14B1B8F1030F08D10E4B0E49287877
:1021FC0016F0010F18BF194603F058FB0A2CDAD160
:10220C000A4B0B49287816F0010F18BF194603F03A
:10221C004DFBD0E7C91E002069C60300F4C40300BF
:10222C0091C603002CC6030042C6030054C603002B
:10223C005EC60300D8C50300FC1B04008842F0B541
:10224C004FEA92031AD89BB29E00871904460D469A
:10225C0004370434BC4205F104053AD1C3EB833393
:10226C00314402EB8303013E304411FA83F399426B
:10227C0020D011F8012B00F8012FF8E7541E204450
:10228C009BB22144A0EB830604460D46043E043C5D
:10229C00B442A5F104050ED16FF003045C43C3EB0B
:1022AC00833302EB830321449BB201342044CB1AC9
:1022BC00994209D1F0BD2F792771EF78E770AF788B
:1022CC00A7706F786770E2E711F8012900F8012D0B
:1022DC00EEE715F804CC04F804CC15F803CC04F89C
:1022EC0003CC15F802CC04F802CC15F801CC04F898
:1022FC0001CCAEE70244904200D1704700F8011BBC
:10230C00F9E710B5013801390AB9104606E010F8A2
:10231C00014F11F8013F9C4201D0E01A10BD013A67
:10232C0092B2F1E782B2074B42B11A80000C064B15
:10233C000ABF4FF6CE2218801A8070474BF6EF6218
:10234C00F3E700BFC01B0020C21B0020094B1888FC
:10235C00020448BF80F0620042001A80064A1388CB
:10236C00190444BF83F4805383F00B03590011808C
:10237C0058407047C01B0020C21B0020034B187034
:10238C00034B1970034B00221A7070474222002035
:10239C0041220020432200202DE9F04F234E3378B8
:1023AC0085B007468846002B3DD0214D4FF6FB7378
:1023BC0098422C7803D952211E4801F079FF1E4B0C
:1023CC004FF0000B9A46327818785FFA8BF94A4531
:1023DC0011D9484402A9C0B2019326F0DFF90822B2
:1023EC0041460DEB0200FFF78CFF0BF1010B019B3B
:1023FC000028E8D14C462B78A34207D1631C3278D5
:10240C00DBB29A422B7004BF00232B709AF8003079
:10241C001C44E4B24146204626F0EAFA18B9394683
:10242C00204626F089F905B0BDE8F08F4122002046
:10243C004322002086C7030042220020024B18785A
:10244C0000F07F00704700BF44220020034B187837
:10245C000130C0B2187000F07F0070474422002099
:10246C001FB5030A8DF80E300323009303AB8DF8D0
:10247C000D0000F0BDF905B05DF804FB1FB5030AB3
:10248C008DF80F1004218DF80E30009103AB8DF8F0
:10249C000D0000F0ADF905B05DF804FB2DE9F0433B
:1024AC0089B00746BDF840509DF84460BDF84C40DB
:1024BC0088460DF10900114608229946FFF7BEFE29
:1024CC008DF81250012E4FEA15258DF811908DF8CC
:1024DC0013508DF8146017D0032E1CD108221299BA
:1024EC000DF11500FFF7AAFE9DF850308DF81D3048
:1024FC0016230093BDF8542002AB4146384600F039
:10250C0077F909B0BDE8F0838DF81540240A8DF8F1
:10251C0016400F23EDE70120F3E71FB50C461946D3
:10252C0002238DF80D2000930A4603AB014620468A
:10253C0000F05EF904B010BD70B586B004461646C6
:10254C000DF10D0008221D46FFF778FE0A230093BB
:10255C002A4603AB342120468DF8156000F048F96B
:10256C0006B070BD30B585B00024ADF80A20021D50
:10257C0092B2012A1D46ADF80840ADF80610ADF830
:10258C00044003D94FF6FF72904207D1064A2B46FE
:10259C00127801A924F046FA05B030BD014601AA13
:1025AC00204624F005FBF7E7C41B00202DE9F74F6C
:1025BC00FF2A98461DBF464B1B689C5C002418BF25
:1025CC006408B8F1FF0F1EBF414B1B6813F808706D
:1025DC000E46814614BF7F0800271546FFF736FFCD
:1025EC004FEA19238DF800008DF803600621360A96
:1025FC0068468DF804608DF801908DF802308DF8E6
:10260C0005401EF019F8FF28064604D11824204670
:10261C0003B0BDE8F08F4FEA440B0BF1070A0AEB4D
:10262C004701C9B21DF0BCFF0028EFD10446A345F9
:10263C001BD10BF106013A4601F0FE0130461EF0AB
:10264C0076F85FFA8AF44FF0000A5FFA8AF5AF4227
:10265C0023D83346BDF8302006214846FFF782FFC9
:10266C00044630461DF08CFED1E7214628461EF06C
:10267C0059F8A11D0246C9B230461EF058F8611C2B
:10268C00C9B228461EF04EF8E11D0246C9B23046CA
:10269C0002341EF04CF8E4B2C9E76D00EDB22946E5
:1026AC0040461EF03FF82146024630461EF03FF8E9
:1026BC00691CC9B240461EF035F8611C0246C9B20D
:1026CC00304602341EF033F80AF1010AE4B2BCE7DA
:1026DC005C1B00202DE9F04188B00F4602A906468C
:1026EC0012F060FF00287CD0FFF7B0FE8DF81000D0
:1026FC001DF0B8FB8DF811001DF0B4FB000A8DF82D
:10270C001200082239490DF11300FFF797FDBDF8AF
:10271C0008308DF81C301B0A8DF81D300F219DF8E8
:10272C000D308DF81B6004A88DF81E301DF084FF51
:10273C00FF28044657D04FF000089DF80D305FFA83
:10274C0088F2934208F101081DD801220DF10E0107
:10275C0020461DF0B3FF4FF000089DF80E305FFAD5
:10276C0088F2934208F1010824D823463A462021E6
:10277C000020FFF7F7FE054620461DF001FE284617
:10278C0008B0BDE8F0810021304612F037FF0DF1A2
:10279C0007018DF807000546012220461DF08EFF2B
:1027AC002D0A01220DF1070120468DF807501DF06E
:1027BC0085FFC2E70121304612F020FF0DF1070121
:1027CC008DF807000546012220461DF077FF2D0AE3
:1027DC0001220DF1070120468DF807501DF06EFF08
:1027EC00BBE7A325CBE71825C9E700BF914D002017
:1027FC00F8B51C460E4617460546FFF727FE9DF812
:10280C001810207020461DF017FFFF2804460BD02F
:10281C0003463A4628463146FFF7A4FE05462046B5
:10282C001DF0AEFD2846F8BD1825FBE708B5FDF7F1
:10283C0043FE16F069FCBDE808400EF005BD08B576
:10284C00FFF749F816F08EFCBDE8084009F004B813
:10285C007047FFF784B8FFF788B830B4BDF808406C
:10286C00BDF80C50CDE9024530BC07F09BBF38B524
:10287C0004460D46FFF792F8294620460EF000FD5F
:10288C0029462046BDE8384011F0B4BEFFF76FB8BA
:10289C00FFF779B801220021092017F03DB900009B
:1028AC0070B5134C8A00A31822449B781D09062D81
:1028BC0098BF104E03F00F0394BF755DFF25062BD8
:1028CC0005719ABF0C4DEB5CFF234371FF3B18BFA6
:1028DC0001238371D37014F82130084C4370537862
:1028EC0083700146204605F0B7FA0123A36070BD42
:1028FC004522002056E103004FE103000020004078
:10290C007FB5224922480022FF23CDE901228DF810
:10291C00093003784C6C8D6B03922C40E407DBB2CE
:10292C0028D5022B26D88C6C1A4901EB8301A5B251
:10293C00CE78194906B326041ED521F81320174961
:10294C00012202FA03F30A781343154A0B70137829
:10295C00CBB100231478DC40E407D9B20FD5017059
:10296C001078012404FA03F34340DBB201A813707E
:10297C00FFF796FF04B070BD21F81350DFE7013369
:10298C00032BE7D1F6E703230370F3E700200040A5
:10299C0051220020452200205422002053220020E6
:1029AC0052220020012070470120704701207047FF
:1029BC0010B5084C23681B68587913F054FD236834
:1029CC001B685879FEF78DFF002016F05FFD012083
:1029DC0010BD00BF044C00202DE9F84F184E804666
:1029EC000D461446994606F1010A0DB9BDE8F88F5B
:1029FC00102D4FF00D02494650462F4628BF102788
:102A0C00FFF71CFC012333700D48F4730023B373E0
:102A1C00013426F087F80B495FFA87FBE4B2424693
:102A2C0012F8013B11F8010F434002F8013CA2EBF4
:102A3C000803DBB25B45F3D3ED1BADB29046D4E794
:102A4C005E2200205D2200202DE9F04F374D85B02D
:102A5C001746BDF83880019003930D220F9B02930B
:102A6C000E460146681CFFF7E9FB49232B702846EC
:102A7C004FEA1823AB7385F80F8026F053F82B78A8
:102A8C0083EA17232B706B784FF002097B406B7035
:102A9C004C46AA464FF0000B21E0C4F1100CA7EBFA
:102AAC000B031FFA8CFC9BB2634528BF6346304670
:102ABC00A11B00EB010C5FFA8CF2A0EB060C1FFAC9
:102ACC008CFC9C451BD31C44E4B29B44102C1E4430
:102ADC001FFA8BFB03D1284626F024F80024BB45B3
:102AEC00DBD314B1504626F01DF8B9F1010F4FF0AD
:102AFC000004039E47460BD04FF00109CAE710F8BB
:102B0C0001CB1AF802E08CEA0E0C0AF802C0D0E7EE
:102B1C00029806490422FFF791FB019B029822467A
:102B2C00042105B0BDE8F04FFFF756BF5E22002030
:102B3C00F7B5099FBDF82040CDE9004706461D4674
:102B4C00FFF782FF2CB13346012221462846FFF7BE
:102B5C0043FF002003B0F0BD2DE9F743BDF828700A
:102B6C000F4C1E460546884691460346394630466C
:102B7C000122FFF731FF33464A4641462846CDE94C
:102B8C000074FFF761FF042221460B98FFF7B9FB95
:102B9C00002814BF7E20002003B0BDE8F08300BFE6
:102BAC005A2200202DE9F3410A4F0C46991815467C
:102BBC001E468046214438460422FFF73FFBCDE9F0
:102BCC00006763192A4621464046FFF7C5FF02B04D
:102BDC00BDE8F0816E220020002070470020704775
:102BEC0070477047034A00231370034A1370034A5B
:102BFC0013707047E83E0020E03E0020F03E0020BD
:102C0C001FB50223009344F20B020DF10E034FF497
:102C1C00407113F093FF10B10023ADF80E30BDF8E6
:102C2C000E0005B05DF804FB1FB50223009344F2BF
:102C3C000C020DF10E034FF4407113F07FFF18B12D
:102C4C004FF6FF63ADF80E30BDF80E0005B05DF821
:102C5C0004FB81B14388808883429EBF1A46034699
:102C6C0010461B1A0A205843B0FBF1F0B0F5803F18
:102C7C0001D280B270474FF6FF7070471FB5012329
:102C8C00009300220DF10F034FF4407113F056FF27
:102C9C0020B140F23231044801F00AFB9DF80F00DC
:102CAC0005B05DF804FB00BF5DE103001FB5012317
:102CBC00009308220DF10F034FF4407113F03EFF07
:102CCC0018B19121034801F0F3FA9DF80F0005B0FB
:102CDC005DF804FB5DE10300F0B585B00F460546D9
:102CEC00FFF7E4FFB842044638D004AE202306F8C0
:102CFC00017D44F2010200934FF4407133462846A3
:102D0C0013F0CBFE20B14FF48171174801F0D0FACB
:102D1C0020230093082233464FF44071284613F0C9
:102D2C00BCFE20B140F209110F4801F0C1FA04EBCE
:102D3C000710C0B2102813D007D801280BD00228D6
:102D4C000CD12846FEF7CFFD08E0202808D021281A
:102D5C0001D01228F4E72846FEF7C6FD05B0F0BDF9
:102D6C002846FEF7BFFDF9E75DE103001FB5012220
:102D7C0000920DF10F034FF4407113F0DFFE20B100
:102D8C004FF45071034801F093FA9DF80F0005B011
:102D9C005DF804FB5DE1030070B5084C00260546A8
:102DAC00A680FFF76BFF25726070054C2846E68005
:102DBC00FFF7DCFFA573608070BD00BF722200209E
:102DCC007E2200201FB50223009303220DF10E0377
:102DDC004FF4407113F0B2FE20B140F21B41044895
:102DEC0001F066FABDF80E0005B05DF804FB00BFFB
:102DFC005DE103001FB50223009304220DF10E03C5
:102E0C004FF4407113F09AFE20B140F2294104486E
:102E1C0001F04EFABDF80E0005B05DF804FB00BFE2
:102E2C005DE103001FB50223009307220DF10E0391
:102E3C004FF4407113F082FE18B19F21034801F04A
:102E4C0037FABDF80E0005B05DF804FB5DE1030038
:102E5C002DE9F843914605460C46FFF7D1FE07468F
:102E6C002846FFF7E1FEB9F1000F064608BF4FF008
:102E7C000109FFF7B7FE02212846FFF72DFFBC42E0
:102E8C0038BF3C46A4B2B442284628BF3446FFF7AC
:102E9C00C9FFDFF83C80A8F800002846FFF7C2FF06
:102EAC00A4B2A8F80200A8F80440A8F80690A8F864
:102EBC00089088F80E50A8F80A70A8F80C606421E5
:102ECC000248BDE8F8431DF03DB800BFE83E0020C5
:102EDC008E220020F0B50E4685B006210746154619
:102EEC0012F0EDFF0123044648B300930F220DF1BD
:102EFC000E034FF44071384613F020FE10B100233E
:102F0C008DF80E300123009300220DF10F030621E2
:102F1C00384613F013FE50B99DF80F403CB9FF2E04
:102F2C0008D1FF2D06D19DF80E4004F00104204677
:102F3C0005B0F0BDF307F6D505F00104F7E71C4624
:102F4C00F5E700001FB504AB212223F8021D009207
:102F5C004FF44071022213F0A0FD18B1F821034880
:102F6C0001F0A6F905B05DF804FB00BF5DE10300BC
:102F7C0010B50446C088E8B1013881B2E180A07B6D
:102F8C00FFF7E0FFA2886388E08893420FD0238884
:102F9C0021899A428BBFD31A9B1A434343438BBF5D
:102FAC00B3FBF1F3B3FBF1F3D31A9B186380B0FAC4
:102FBC0080F0400910BD00002DE9F8431E46314B4E
:102FCC001B681B685C798046204615460F46FFF748
:102FDC0055FE002D08BF0125B8F1FF0F814601D029
:102FEC00FF2F05D1802016F051FA0120BDE8F8839F
:102FFC009DF8202031462046FFF76CFF0028F2D0C8
:10300C00C14538D2A8EB09067E2ECCBF002601267E
:10301C00FFF7E8FD00212046FFF75EFE2046FFF794
:10302C00BBFE194B204683F802804FF000085E72FD
:10303C0083F8009083F801909D80DD801C7283F8EA
:10304C000A80FFF793FE114E30802046FFF78EFE6C
:10305C00FE23708029462046B381B780F5803581E8
:10306C00B473A6F80A80FFF76DFF094864211CF0C1
:10307C0069FF4046B7E7A9EB08067F2ED4BF0026B0
:10308C000126C5E7044C0020722200207E2200207D
:10309C00F03E0020F8B50D4611462B4A1268126816
:1030AC00567907461A463046FFF714FF20B9002020
:1030BC0016F0ECF90120F8BDFFF794FD002FF6D0C7
:1030CC0000213046FFF708FE3046FFF765FE30461C
:1030DC00FFF7D4FD1D4C20703046FFF7CFFD012FBC
:1030EC00607020D13046FFF7C9FD15FA80F080B230
:1030FC00FE2884BFFE3880B2A070012363720A23BD
:10310C00A380E3804FF6FF7101233046A372267231
:10311C00FFF718FF0E4B0F4800246421DC801CF0D5
:10312C0011FF2046C4E7032F0BD13046FFF7A6FD55
:10313C0083B2A8423CBFFE339BB25D1BA57000233B
:10314C00DCE78020B4E700BF044C00207222002092
:10315C007E220020F03E00202DE9F0410E46114663
:10316C00224A12681268557980461A462846FFF79B
:10317C00B1FE28B9002016F089F90120BDE8F081D4
:10318C00FFF730FDB8F1000FF4D0002EF2D0002183
:10319C002846FFF7A1FD2846FFF7FEFD144B154C02
:1031AC00002728469F80FFF7E1FD20802846FFF787
:1031BC00DDFDB8F1010F08BFFE23314660800D48DC
:1031CC000CBFA380A780FFF744FD00260146FE2319
:1031DC00E08020812846A381A5736681FFF7B2FEAB
:1031EC00054864211CF0AEFE3046C4E7044C0020B8
:1031FC00722200207E220020F03E00202DE9F041BA
:10320C0017462E4A1268126855799DF81820804688
:10321C000C4628461946FFF75DFE20B916F036F924
:10322C000120BDE8F0812846FFF728FD002F08BFDC
:10323C000127B8F1FF0F01D18020EFE7032CFBD859
:10324C00DFE804F002323909A0EB080010F0800F1F
:10325C000CBF03240124FFF7C5FC00212846FFF70F
:10326C003BFD2846FFF798FD2846FFF707FD144E57
:10327C0030702846FFF702FD631E5C425C41114B27
:10328C0070707472394600242846DC8086F80280FF
:10329C00B780F7803572B472FFF754FE0A48642188
:1032AC001CF050FE2046B9E7A0EB080010F0800F90
:1032BC0018BF0324CFE70124CDE700BF044C002046
:1032CC00722200207E220020F03E00202DE9F041E9
:1032DC000E4611461E4A12681268557980461A46E7
:1032EC002846FFF7F7FD20B916F0D0F80120BDE80D
:1032FC00F081002E08BF0126B8F1FF0F01D180200C
:10330C00F2E7FFF76FFC00212846FFF7E5FC2846A3
:10331C00FFF742FD0F4B104C002728469F80FFF70C
:10332C0025FD20802846FFF721FDFE2360803146D5
:10333C002846A381A4F80480E6802681A5736781C2
:10334C00FFF700FE054864211CF0FCFD3846CBE776
:10335C00044C0020722200207E220020F03E00202F
:10336C002DE9F0411446284A1268126855799DF8E7
:10337C00182080460F4628461946FFF7ABFD28B9A2
:10338C00002016F083F80120BDE8F0812846FFF7F5
:10339C0075FC002C08BF01240646FFF723FCB8F18E
:1033AC00000FEDD000212846FFF796FC2846FFF7CA
:1033BC00F3FC164AB8F1010F16705670B3B2B9B2DD
:1033CC0019D10B449BB2FE2B84BFFE3B9BB2937076
:1033DC00012353720E4B1572A1B228460024918022
:1033EC00D1809472DC80FFF7ADFD0A4864211CF09B
:1033FC00A9FD2046C5E7BE423CBFFE339BB25B1A1B
:10340C0093700023E5E700BF044C002072220020DB
:10341C007E220020F03E00202DE9F0411446264A81
:10342C001268126855799DF8182080460F46284678
:10343C001946FFF74FFD28B9002016F027F8012098
:10344C00BDE8F0812846FFF791FC002C08BF012451
:10345C000646FFF7C7FBB8F1000FEDD00021284658
:10346C00FFF73AFC2846FFF797FC144B0020988096
:10347C00134BB2B2B8F1010F1A805A8016D13A44EC
:10348C0092B2FE2A28BFFE22A1B29A800024FE220C
:10349C002846D98019819D735C819A81FFF752FD72
:1034AC00084864211CF04EFD2046C6E7BE4226BFEC
:1034BC00F21BD2B20246E7E7044C00207222002035
:1034CC007E220020F03E00202DE9F8431546244AC8
:1034DC001268126854799DF82020074689462046C8
:1034EC001946FFF7F7FC20B915F0D0FF0120BDE815
:1034FC00F883002D08BF0125FFF774FB012120463E
:10350C00FFF7EAFB2046FFF75DFC164E30802046A5
:10351C00FFF758FC4FF6FF687080B78020460027F5
:10352C00F5803581B4737781A6F80C80FFF762FCC7
:10353C000D4E30802046FFF75DFC294670802046FA
:10354C00A6F80490F5803581B4737781A6F80C80C9
:10355C00FFF7F8FC054864211CF0F4FC3846C3E77F
:10356C00044C00209E220020AE220020E03E0020D1
:10357C002DE9F8430E4611462F4A12681268557908
:10358C0007461A462846FFF7A5FC28B9002015F077
:10359C007DFF0120BDE8F883FFF724FB0FB9002E57
:1035AC00F4D001212846FFF797FB2846FFF70AFCC9
:1035BC00224C002FB9B2D7BF49424FF6FF6300230C
:1035CC0089B2208060801D48CCBFA380A380FFF708
:1035DC0040FB4FF000080746E08020814FF6FF6962
:1035EC002846A573A4F80A80A4F80C90FFF702FCF7
:1035FC00134C4645B1B2DCBF494289B22080608091
:10360C000F48CCBFA4F80490A4F80480FFF721FB6A
:10361C00002387420146E0802081638138BF394610
:10362C004FF6FF632846A573A381FFF78BFC64213B
:10363C0004481CF087FCA9E7044C00209E220020C3
:10364C00AE220020E03E00202DE9F0471746374A15
:10365C001268126854799DF8202006460D462046C3
:10366C001946FFF737FC20B915F010FF0120BDE813
:10367C00F0872046FFF7A6FB86194CD4B6F57F4F92
:10368C004BDAB6B22046FFF7B5FB451948D4B5F571
:10369C007F4F47DAADB2002F08BF0127FFF7A2FA20
:1036AC0001212046FFF718FB2046FFF78BFBDFF8C4
:1036BC008880A8F800002046FFF784FB4FF0000933
:1036CC00A8F802004FF6FF6A2046A8F80460A8F894
:1036DC000670A8F8087088F80E40A8F80A90A8F8A8
:1036EC000CA0FFF787FB124E30802046FFF782FBC1
:1036FC00394670802046B580F7803781B473A6F8C0
:10370C000A90A6F80CA0FFF71DFC0A4864211CF0D7
:10371C0019FC4846A8E70026B4E74FF6FF66B1E768
:10372C000025B8E74FF6FF65B5E700BF044C002055
:10373C00AE220020E03E00209E22002070B50E46F6
:10374C0011460A4A12681268547905461A462046F0
:10375C00FFF7C0FB18B915F099FE012070BD20468B
:10376C0032462946FFF774FB0020F4E7044C002096
:10377C002DE9F84F1E462E4B1B681B685D7983465E
:10378C00894617469DF828109DF82C202846FFF7EF
:10379C00A1FB08B9002010E02846FFF731FA80465B
:1037AC002846FFF741FA8246FFF71CFABBF1000FDF
:1037BC00F0D0B9F1000F05D1852015F067FE01207E
:1037CC00BDE8F88F474538BF4746864228BF0646B6
:1037DC0002212846FFF780FA2846FFF723FB154CF9
:1037EC0020802846FFF71EFBBBF1010FBFB2B6B21B
:1037FC00608016D1B24528BFB246A4F804A0494651
:10380C000C48FFF726FA0146E08020812846A57374
:10381C006781A681FFF796FB642107481CF092FB99
:10382C00B8E7B84538BFB846A4F80480E7E700BF4E
:10383C00044C00208E220020E83E00202DE9F047A9
:10384C001C462C4B1B681B685D7982460F4616463E
:10385C009DF824109DF828202846FFF73BFB28B93B
:10386C00002015F013FE0120BDE8F0872846FFF775
:10387C00C7F981462846FFF7D7F9002E08BF012665
:10388C00FFF7B0F9BAF1000FEAD0BDF82080A145DE
:10389C0038BFA146404528BF404602211FFA80F898
:1038AC002846FFF719FA2846FFF7BCFA124C20807D
:1038BC002846FFF7B7FABAF1010F60801FFA89F9B1
:1038CC00284613D1FFF7AEFA3844A080314628467B
:1038DC00E6802681A573A4F80A90A4F80C80FFF763
:1038EC0031FB642105481CF02DFBB9E7FFF79AFA70
:1038FC00C01BEAE7044C00208E220020E83E00208A
:10390C007FB54FF44071044612F0D9FA00283BD031
:10391C002046FFF7CBF9022836D100900DF10E03AB
:10392C0044F20D024FF44071204613F007F920B118
:10393C002046FFF765F9ADF80E002046BDF80E6085
:10394C00FFF772F901230546009300220DF10E03D7
:10395C000821204613F0F2F810B17F238DF80E30B9
:10396C009DF80E30012B0AD9FD2B9FBFA91B594383
:10397C00FE23B1FBF3F19ABF691A8DB235460022D2
:10398C0029462046FFF764FA04B070BD08B5084B11
:10399C001B681B680A4601465879FFF79BFA08B169
:1039AC00FFF720F9002015F071FD012008BD00BFC4
:1039BC00044C00207FB5524CA188257A002933D1C4
:1039CC0000265048FFF7D4FA16B9002800F093806F
:1039DC00FFF708F904AB627803F8012D202200925E
:1039EC00207A00224FF4407113F057F820B140F2C6
:1039FC001311454800F05CFC424B5A88987B04AB91
:103A0C004FF4407103F8022D20220092012213F092
:103A1C0044F820B140F21D113B4800F049FC284607
:103A2C00FDF760FF04B070BD0139A37A89B2A180A3
:103A3C0013B92846FFF786FAA0786378834219D029
:103A4C002378617A9AB286B2002930D0984234BF7A
:103A5C0006F1FE0131468A1AA188E388D2B24A43A4
:103A6C00B2FBF3F2D2B290423CBF06F1FE039EB21F
:103A7C00B21A6270A388002BA2D1A37A002B38D083
:103A8C002278667A93B281B22EB3904234BF01F1A0
:103A9C00FE020A46D31A51FA83F39BB2FE2B84BF63
:103AAC00FE3B9BB22070A3700A23A38088E7984248
:103ABC0084BFFE3292B2931BA288DBB25343E288DE
:103ACC00B3FBF2F356FA83F39BB2FE2B84BFFE3B9F
:103ADC009BB26370CEE7904284BFFE339BB25B1AFD
:103AEC00DAB290423CBF01F1FE0399B220708B1AFE
:103AFC00D9E7012665E7642104481CF023FA69E73D
:103B0C00722200207E2200205DE10300F03E0020A6
:103B1C007FB51E4C2046A57BFFF72AFA06461C48AB
:103B2C00FFF726FA06B958B3FFF75CF804AB6288C6
:103B3C0023F8022D21220092A07B03224FF4407126
:103B4C0012F0ABFF20B140F22711124800F0B0FB8D
:103B5C000F4BA07B5A8804AB4FF4407123F8042D13
:103B6C0021220092042212F098FF20B140F2311170
:103B7C00084800F09DFB2846FDF7B6FE04B070BD6A
:103B8C00642105481CF0DEF9D0E700BF9E2200201E
:103B9C00AE2200205DE10300E03E002030B5124C67
:103BAC0085B02046A57BFFF7E3F9C0B1FFF71AF803
:103BBC0004AB628823F8022D21220092A07B0722FD
:103BCC004FF4407112F069FF20B140F23B110748ED
:103BDC0000F06EFB2846FDF786FE05B030BD642173
:103BEC0003481CF0AFF9E3E78E2200205DE10300EF
:103BFC00E83E0020F0B587B006AB4FF6FF7223F815
:103C0C00042D02260022CDE90162009344F2100239
:103C1C0040234FF44071044612F082FF002842D139
:103C2C0006AD4FF6FF6325F8023D0722CDE9016092
:103C3C00009540234FF44071204612F071FF90BB69
:103C4C002046FEF7DDFF07462046FEF7EDFFBDF8E8
:103C5C001430BB4227D3834225D8ADF8163021232C
:103C6C00CDE90053072240234FF44071204612F057
:103C7C00F4FEC0B906AD302705F8056D40230822C7
:103C8C004FF44071CDE90057204612F0E6FECDE925
:103C9C000057402344F201024FF4407120468DF846
:103CAC00136012F0DAFE07B0F0BD0000F7B50A4E53
:103CBC000A4F0B4D002456F8243003B93B6835F8F5
:103CCC0014200092074922460120013414F084F993
:103CDC00292CF0D103B0F0BDC81B0020701C0020B3
:103CEC006C3F0020F5E1030008B5FFF7DFFFBDE8EE
:103CFC00084000F0F1B8000007B50020FDF72EFFDA
:103D0C00C2B2282A0DD8084B53F822300BB9074BF6
:103D1C001B68074931F8121000910120054914F075
:103D2C005BF903B05DF804FBC81B0020701C00207D
:103D3C006C3F0020F5E10300FFF7B8BF70470000AF
:103D4C0038B50020FDF70AFF04460120FDF706FFF9
:103D5C0005490546012014F03FF9A9B2E0B2BDE8CF
:103D6C00384000F0D1B800BF00E20300F7B50A4EAE
:103D7C000A4F0B4D002456F8243003B93B6835F834
:103D8C0014200092074922460120013414F024F932
:103D9C00292CF0D103B0F0BDC81B0020701C0020F2
:103DAC001A3F0020F5E1030073B502AB03E90600EE
:103DBC000446019D1BF070FD064620461BF07AFD63
:103DCC009DF800008EB1202C0FD82B78012B37D802
:103DDC0003EB4313394923444FF6FF7531F8132095
:103DEC00AA4202D0013221F81320354B354933F861
:103DFC00146031F814504FF6FF7296421CBF721CBF
:103E0C0023F8142004F0FD02092A31D19A8A898AF8
:103E1C0002448A42B4BF9A82998233F81430AB427E
:103E2C0004D3AE4202D22046FDF75FFD264B00259F
:103E3C00EA5CA24228D00135112DF9D102B070BD37
:103E4C00022BD2D11D4B33F814204FF6FF718A424E
:103E5C001CBF013223F8142004F121024FF6FF7528
:103E6C0033F81210A9421CBF013123F81210BCE721
:103E7C001D2CD2D15A8F1118A942BDBF02F1FF32AD
:103E8C0012185A875D87C8E730F0F5FD0F4B1B7889
:103E9C008342044603D8DD210D4800F009FA04EBF7
:103EAC0004140C4A2C444FF6FF7132F814308B4238
:103EBC00C4D0013322F81430C0E700BFBE3F00204D
:103ECC006C3F00201A3F00206CE50300A51B00206E
:103EDC00E8E40300F83E0020522200210148FEF7DE
:103EEC0009BA00BF6C3F00205222FF210148FEF7A7
:103EFC0001BA00BF1A3F002008B5FFF7EDFFBDE87F
:103F0C000840FFF7F1BF0000014B23F81010704779
:103F1C001A3F002010B5104C1049A16103232166F3
:103F2C000F494FF48062C4E904330E4BE361C4E9DA
:103F3C00191200230C49A362E01D6362E36223673C
:103F4C00E3666367226238F0CBF90849204638F003
:103F5C00C7F92023A37110BD444000207DE5030068
:103F6C00BE220020BE26002086E503008AE5030061
:103F7C002DE9F84F1F4B16461A7881468A4698460B
:103F8C000AB9FFF7C7FF182707FB09873D6FD7F85A
:103F9C006CB05D452BD9BC6E796E641BB44228BFE6
:103FAC00344629445046224638F0C1F8BB6E2544AD
:103FBC00A244361BAB4208BF0025ABEB050B5E459C
:103FCC0028BF5E4656B1182303FB09833246596E4F
:103FDC005046294438F0ABF83444354424B1182306
:103FEC0003FB0988C8F870502046BDE8F88F002400
:103FFC00E3E700BF4440002010B50B46EFF31184FB
:10400C004FF0200181F311881946FFF7B1FF84F3BB
:10401C00118810BD2DE9F84F144D9B462B78814625
:10402C00884692460BB9FFF775FFEFF3118C4FF0F2
:10403C00200181F311886F690020182303FB0054C1
:10404C00666E2EB101308742F8DC4FF0FF3009E08C
:10405C008742FADDC4E91898C4F868A02667E666BA
:10406C00C4F874B08CF31188BDE8F88F444000207C
:10407C00FFF750BF012270B51146042004F034FA4A
:10408C001A4B1B4D1A681B4842F001021A60DA6881
:10409C004FF0604442F08072DA60174BC4F8B03FC6
:1040AC0000260223C4F8006EC4F8806EC5F8F03008
:1040BC0004F016F900F5D520104B114A00F2FC4023
:1040CC00B0FBF3F00F4B01382861C4F8406E1A6056
:1040DC000D4BC4F8803E4FF48073C5F80433D4F80C
:1040EC00003E43F48073C4F8003E70BDF0ED00E078
:1040FC00000004E006000E0055CEACC5F8590D00CA
:10410C00FF030040001000E00D00010010B501217C
:10411C00104803F099FF104B01241C60002005F09F
:10412C0051F8234604220221052005F0A3F820466D
:10413C0017F056FEFFF79EFF17F053FEFFF798FFA0
:10414C002346402205490648FFF764FF054B1860DB
:10415C00C00F10BD00350A0010881442BE2A002082
:10416C0091E50300741C0020024B1868003018BF46
:10417C0001207047F0ED00E0054A4170D123037037
:10418C001378C370090A8170591C11700420704790
:10419C00FE2A00202DE9F74F354E33681C5C032CAA
:1041AC00074663D92BF040FFDFF8C8800190053437
:1041BC00E4B24FF6FF7A0025C146D8F800204AB188
:1041CC00AC4207D92BF030FF019BC01A80B2B0F57E
:1041DC00FA7F05D9601B18BF012003B0BDE8F08F32
:1041EC00002D3DD0012D1DD13268D55D4FF0020B55
:1041FC004FF06042D2F8801ECB0711D51146D9F88A
:10420C000C0040F08070C9F80C00D1F8000E40F49E
:10421C008070C1F8000E086A0028F0D082F8205097
:10422C005D46CAE7E21E05F1010B95425FFA8BFB76
:10423C0002D15FFA8AF5DBE7A21E954202D1CAF3DE
:10424C000725D5E7621E95420ED0A91EC9B2384685
:10425C001CF068FA51460546FDF760FF8246C7E739
:10426C005B254FF0010BC3E75D25C1E70120B4E7E7
:10427C005C1B0020F0ED00E010B50B4B90B0402221
:10428C0069461868FFF7B8FE58B1C1B268461CF011
:10429C00D3F904460146122030F0BAFA20461CF03D
:1042AC006FF810B010BD00BF741C002042DE7047C8
:1042BC0038B504460D4618F0D7F800F0CBFD04F0E5
:1042CC00CCFA2946204630F06FFA2B462246054997
:1042DC0001200FF00FFD29462046BDE83840FFF7BE
:1042EC00E5BF00BFA1E503006D4B2DE9F0416D4C1E
:1042FC005A68A2655A6AE2656B4AD2F800122166C6
:10430C00D2F8042262669A6AA266DA6AE2661A6BCC
:10431C0022675A6B6267DB6BA26BA367D4E90F53FE
:10432C0012F0040F18BF1D462BF062FE00228542CE
:10433C000346606522655CD35C4A954259D8AA69EC
:10434C006264E969A164B4F85810C1F30801062944
:10435C0053D157498A4250D356498A424DD211887B
:10436C004DF64262914248D16268C4F89420A2682A
:10437C00C4F8982040F201704F4A5049934238BF1C
:10438C0013460A468B423BD3D31AE3640023C4E999
:10439C001F33C4E92133C4E92333484E444FDFF8BB
:1043AC0014C1AE4232D8D4E91FC7D4E92165D4E98F
:1043BC0023124FF0000E013BDBB2FF2B41D1BEF1BB
:1043CC00000F05D0C4E91FC7C4E92165C4E9231255
:1043DC00B4F85830C3F30803DA1E0F2A55D8DFE8B7
:1043EC0002F03A5B474A5454545454515454545464
:1043FC00543E0022C4E911221D464FF42060BBE755
:10440C001E68B6F1CD3FBFD10433BBE756F8042D7F
:10441C00BA42C6D36245C4D2D107C2D5002104EB3F
:10442C00010EDEF87CE09645BBD004311829F6D19C
:10443C000BB9052301E0013BDBB204EB8301CA6736
:10444C00AFE7E0464FF0010EBC4637462E460D4610
:10445C0011464246AFE740F60120BDE8F081184B0B
:10446C00DB6913F0020F40F2025318BF1846F4E751
:10447C0040F60320F1E740F60423B0F5206F08BFA7
:10448C001846EAE740F60520E7E7013B40F607222D
:10449C00412B98BF1046E0E740F60220DDE700BF55
:1044AC0000ED00E00000002000E100E0A01A002078
:1044BC002403000028C303009C000020C01A002025
:1044CC0000200540062804D007280CBF012002203C
:1044DC0070470020704700002DE9F04385B04FF481
:1044EC008073ADF80C3001F08DFC01211548DFF81C
:1044FC005C80DFF85C9003F0A7FD0121124803F00B
:10450C00A3FD0024012703AB0122E35C18F8336000
:10451C0008EBC30330465D680023294604F0AAFE6D
:10452C004946E8B201F07CFCCDE9007701232A462C
:10453C002946304604F052FE14B105B0BDE8F083B4
:10454C000124E0E74041050000350A00B4E5030012
:10455C00E545000008B5FFF7B5FF022816BF024B72
:10456C000020185C08BD00BFFF2A002008B5FFF72B
:10457C00A9FF02281CBF014B195408BDFF2A0020BB
:10458C0008B5FFF79FFF022805D0034A135CB3FA66
:10459C0083F35B09135408BDFF2A002008B5FFF70D
:1045AC0091FF022811D00A4A12F8301030234B43E5
:1045BC0002EBC00207491944536803EBC1039B008B
:1045CC001868B0FA80F0400908BD0020FCE700BF75
:1045DC00B4E503001CA0104270B50446FFF7DEFFE3
:1045EC000026054601E000261D462046FFF7D6FFB3
:1045FC00A8420346F7D10136052EF2D12046FFF72B
:10460C00A9FFA8420BD029462046FFF7AFFF204652
:10461C00FFF7A0FF0146204610F048FE70BD204673
:10462C00FFF7AEFF2046FFF795FF0146204610F03E
:10463C003DFE2046FFF7A4FFE9E7000010B505F0AA
:10464C0057F8044605F04EF80022012101FA02F356
:10465C00234014D01B4B33F812301B4A062B13D0BB
:10466C0040F207218B420DD1184919480C6884423D
:10467C0008D14CF23C334B800B88138012E0013292
:10468C00112AE3D1104AF8E7104B58884FF20F016A
:10469C00884214D11988B1F5406F10D211804CF2B8
:1046AC003C325A80084B1A8840F201739A4201BF7F
:1046BC00084A094BD2E90001C3E9000110BD4FF4CF
:1046CC00C061EBE7C4E503000C2B002000000020C8
:1046DC0007020FF094000020042B0020014B1888D7
:1046EC00000A70470C2B0020014B1888704700BF44
:1046FC000C2B00202DE9F04F4D4CA36BD4F850B08F
:10470C00D4F840A05A074FBF0027D4F84CB0D4F8C7
:10471C005480D4F83CA05ABF464FDFF84091DFF8E4
:10472C004091454A48BFB84613F0080F434B18BF99
:10473C001A46B7EB08061CBF7308642187B01FBF6D
:10474C0001FB0B33B3FBF6F39BB205933C49CDF85D
:10475C0000804B46CDE9017A08BF0596054601F06D
:10476C00A5F8B3B2CDE900931FFA8BF2059B35493E
:10477C00284601F09BF8A36B5B070AD49C3E5E4570
:10478C0007D1626D304B9A4203D23049284601F072
:10479C008DF8BA4501D8C24504D24A462C49284660
:1047AC0001F084F828460FF09FFA236E0BB9636E64
:1047BC00BBB32849DFF8AC80DFF8AC90284601F099
:1047CC0060F800260127226E07FA06F3134207D081
:1047DC0058F8262013781BB14946284601F051F8A9
:1047EC000136202EEFD1DFF87C80DFF87C9000269C
:1047FC000127626E07FA06F3134209D008EB860311
:10480C00D3F8802013781BB14946284601F039F8BB
:10481C000136122EEDD1284607B0BDE8F04F01F05D
:10482C003FB80D49284607B0BDE8F04F01F03EB83F
:10483C0000000020C01A0020D6E80300CFE80300D7
:10484C00DEE803000CE903009C00002045E90300AE
:10485C0071E903008FE90300BEE90300CAE8030015
:10486C009D050400D4E90300881B04002DE9F843DE
:10487C000446FFF739FF40F60123984239D010D88F
:10488C0040F2025398421DD040F20173984224D05A
:10489C0040F20153984213D16549204601F006F8C5
:1048AC0022E040F6032398426CD03DD340F604231B
:1048BC00984200F09C8040F60523984200F0B580A9
:1048CC00BDE8F8835B49204600F0F0FF5A4B5B498A
:1048DC005A6C204600F0EAFF06E0574A5849D2E9E4
:1048EC002523204600F0E2FF2046BDE8F8430FF0F8
:1048FC00FBB9514D5349204600F0D8FF95F86C3068
:10490C009F0703D55049204600F0D0FF95F86F3033
:10491C005E0603D54D49204600F0C8FF95F96F306F
:10492C00002BE1DA4A49B8E7434D4A49204600F0EA
:10493C00BDFF95F86830980704D06A6C3F49204653
:10494C0000F0B4FF95F96830002B04DA6A6F424925
:10495C00204600F0ABFFDFF80C81DFF81891002641
:10496C000127AA6E07FA06F3134207D058F826203F
:10497C0013781BB14946204600F098FF0136082EEB
:10498C00EFD1B1E72C4D3549204600F08FFF2B4974
:10499C006A6C204600F08AFF95F86930590703D5F8
:1049AC002F49204600F082FF95F96930002B04DA7C
:1049BC006A6F2949204600F079FF2A4FDFF8B4804E
:1049CC000826AB6EF340DA0707D557F82620137884
:1049DC001BB14146204600F069FF0136102EF0D184
:1049EC0095F86830002B7FF47FAF1F4955E7124DC7
:1049FC001E491C4FDFF87C80204600F057FF6A6C84
:104A0C000E49204600F052FF1026AB6EF340DB0738
:104A1C0007D557F8262013781BB14146204600F0E5
:104A2C0045FF01361A2EF0D15EE711494BE700BF66
:104A3C0059E6030096E6030000000020C6E60300DA
:104A4C00DFE60300F9E6030011E703004BE7030080
:104A5C007EE70300BAE70300DFE7030003E8030087
:104A6C001AE80300E8E5030060E8030090E803009F
:104A7C00A9E80300FBE703002DE9F84F164C174F8C
:104A8C00DFF86080DFF860A00646002523785FFA27
:104A9C0085FB0BB9BDE8F88F57F8043B104922464B
:104AAC00304600F0EEFE227804F1010982B96278FA
:104ABC0082B10BF0030103290CBF4146514630462D
:104ACC0000F0DFFE30460FF00FF901354C46DDE704
:104ADC004C46E8E74146F2E79CEA0300040000205C
:104AEC0050E60300F2C40300C00A040000F00CB846
:104AFC0000F00AB800F008B800F006B800F004B8EE
:104B0C0000F002B800F000B872B61EF0080F09D021
:104B1C001EF0040F0DD0DFF850E0AEE8FF1F6FF071
:104B2C0002000CE0DFF840E0AEE8FF1F6FF00E0073
:104B3C0005E0DFF834E0AEE8FF1F6FF006006946D1
:104B4C00EFF309828EE8070086460848084C854535
:104B5C0001D3A54501D384F30888FFF7C5FB84F383
:104B6C0008882BF021FA000004000020A01100207E
:104B7C00C01A0020FFF7C6BF10B501210A4803F088
:104B8C0063FA0121094803F05FFA0422114600235D
:104B9C00052004F06FFB0521002304220846BDE824
:104BAC00104004F067BB00BF4041050000350A000F
:104BBC00064B03EBC00213F83030516801228A40D7
:104BCC0030215943024B5A50704700BF2CF103005F
:104BDC000CA00046064B03EBC00213F830305168B2
:104BEC0001228A4030215943024B5A50704700BF72
:104BFC002CF103000CA00044074A12F8301002EB11
:104C0C00C002536801229A4030234B4303F1804386
:104C1C0003F520439A6170472CF1030070470000A4
:104C2C0037B57F2A14BF154600254BF234629142EA
:104C3C00044619D17F2241F2020168460823FFF78E
:104C4C00EFFF082224496846FDF75BFB30B90823C7
:104C5C007F2241F2F0116846FFF7E2FF0822694615
:104C6C002046FDF7EBFA09E041F2F01291421AD11D
:104C7C001A490A6C496C01381D1F0BB903B030BDC1
:104C8C00013B9D4200F8012F4FEA1222F5D103346B
:104C9C0000229A42F2D00132042A04F8011F4FEA92
:104CAC001121F6D1EAE701F47042B2F5805F07D129
:104CBC00C1F30B0404F17E649AB203FB0541D0E707
:104CCC0001F46042B2F5005FD8D1C1F30B0404F1DA
:104CDC007E6404F58044EFE7C6F10300B081E00F79
:104CEC0070B5054616461C46DBB14BF2346399424F
:104CFC0010D1082C28BF08247F2241F20201234640
:104D0C00FFF78EFFA2B207492846FDF7FAFA40B921
:104D1C0041F2F011234632462846BDE87040FFF7B9
:104D2C007FBF70BDC6F103002DE9F8431646C207DC
:104D3C0004460F4603D5DD212748FFF7B9FAF307E0
:104D4C0003D5DE212448FFF7B3FA04F47043B3F51E
:104D5C00805F21D1C4F30B0404F17E64731E1F4ADF
:104D6C0023449342254603D9E3211B48FFF7A0FABD
:104D7C00DFF8649005EB0608454522D156B372085E
:104D8C00394620462BF09BF820B340F20F11124805
:104D9C00BDE8F843FFF78CBA04F46043B3F5005F49
:104DAC0007D1C4F30B0404F17E6404F5804425465A
:104DBC00DEE7EA210848FFF77BFA6FF00F050024C5
:104DCC00D6E715F8013BFF2BD6D0F4214846FFF768
:104DDC006FFAD1E7BDE8F8834CF10300FF07E00F51
:104DEC00FFF784BE1FB501211648174C03F02CF9B0
:104DFC0001221146104603F077FB0421072004F032
:104E0C0061FC124A1068516801AB03C390681860CA
:104E1C0001238DF804300D238DF80C3001A90323E8
:104E2C0020468DF80D3004F056FE094B0422022169
:104E3C00C3F8802161621A60A36A0B43A36204B0B9
:104E4C0010BD00BF30253E0000200540CEF1030010
:104E5C0000E100E0014804F032BE00BF0020054034
:104E6C00A52803D10021024804F015BE704700BFED
:104E7C0000200540024B186800F00100704700BF8D
:104E8C0000200540024A9368002BFCD1704700BFFC
:104E9C00002005400020704700207047704700003C
:104EAC0013B572B603F0D9FC784B79495B698B600A
:104EBC0000230B76E0204B768B764023C876087760
:104ECC0048778877CB77734B8022602481F8202039
:104EDC0081F8210081F8220081F8232083F8002337
:104EEC0083F80143202483F8024383F8034383F8B7
:104EFC00042383F8052383F8062383F8072383F818
:104F0C00082383F8092383F80A2383F80B2383F8F7
:104F1C000C2383F80D2383F80E2383F80F2383F8D7
:104F2C00102383F8112383F8122383F8132383F8B7
:104F3C00142383F8152383F8162383F8172383F897
:104F4C00182383F8192383F81A2383F81B2383F877
:104F5C001C2383F81D2383F81E2383F81F2383F857
:104F6C00202383F8212383F8224383F8232383F817
:104F7C00242383F8252383F8262383F8272383F817
:104F8C00282383F8292383F82A2383F82B2383F8F7
:104F9C002C2383F82D2383F82E2383F82F2383F8D7
:104FAC00302383F8312383F83203CB6823F4E06396
:104FBC001B041B0C43F0BF6343F40133CB604B6900
:104FCC0043F400734B614B6943F010034B614FF496
:104FDC00E0234B6206F0C2FBFFF730FBEFF30883D4
:104FEC002D4A043B4FF0CD3193421DD22B4A2C4815
:104FFC0092B20021FDF77EF962B62A4B01225A6467
:10500C00294BDB6C1B0E12D1284929484AF6E85271
:10501C000A60026842F0040202600B60254A1368C1
:10502C0043F40053136004E01960043BDCE7012BEC
:10503C00F4D0214A136A23F4441343F48813136203
:10504C00A2F580420124136843F48073136002F5C7
:10505C0046522432136843F4F8431360174B1C6117
:10506C0006F0C0FA01F0DEFA002368460093ADF8B2
:10507C0004308DF8034003F083FE00F021F92AF090
:10508C00E5FF0F482FF0D4FD02B010BD000000006A
:10509C0000ED00E000E100E0601100208410000051
:1050AC00A000002000000E40B081E00F90310E40B7
:1050BC0098310E4064310E4000400E4000300E40DE
:1050CC00282D040040F201602AF06EBFFDF788BD68
:1050DC0008B500210B20FDF781FDBDE80840FDF768
:1050EC0080BD032000F076BA08B5FFF7F7FA044B41
:1050FC000B289ABF00B203EB8000184608BD00BF16
:10510C0028F3030008B5FFF7EFFA044BC0F30F22A6
:10511C00C0B253F8223003EB800008BDECF2030060
:10512C0010B5FFF7DBFA0446FFF7DEFAC0B228B978
:10513C00012C24D164F07F04E4B216E0072CF9D8DA
:10514C0001A353F824F000BF775100004151000037
:10515C00755100007B5100007B5100007F51000015
:10516C0083510000875100000924204610BD022401
:10517C00FBE70324F9E70B24F7E70624F5E70446DD
:10518C00F3E700BF07282DE9F84F04460F462DD052
:10519C00082808BF022421460120FCF700FCFFF779
:1051AC0069FE651ED5F1000848EB050800B3012C1B
:1051BC001ED1A520FFF754FE2646EFF310890123DC
:1051CC0083F31088EFF3118A4FF0000B8BF31188E7
:1051DC00354D40460FF010F8631EC5F800B0042B97
:1051EC0059D8DFE803F00E4D4D5155000324D2E79A
:1051FC00FFF740FE18B1FFF745FE0026DDE7064637
:10520C00DBE72A4A136923F00403136130BF284AF1
:10521C00D2F82834D2F81C2413409BB2254A2B60B8
:10522C00D2F80011480502D51168490506D4D2F808
:10523C000011480305D51268510302D543F480339D
:10524C002B601C4BD3F80021520006D51B685B0069
:10525C0042BF2B6843F400332B601EB1012116486A
:10526C0004F019FC40460EF0DDFFCFB18AF3118833
:10527C0089F3108821460020BDE8F84FFCF78FBB5E
:10528C00012003F097FCC2E7012003F0C7FCBEE746
:10529C0003F00AFDBBE788210848FFF709F8B6E7D9
:1052AC0087F31088E6E700BF142B002000ED00E028
:1052BC0000A0004000E100E00020054058F303008E
:1052CC00044AD2F81C341B0C1B04C2F82434024AC6
:1052DC001360704700A00040102B00200021FFF746
:1052EC0051BFFFF7FBBF00002DE9F04F89B016F05E
:1052FC0081FD0746002840F0DD806F4E6F4D316810
:10530C0028682EF0EDFB0446002827D033689A69F4
:10531C00D3E900011268904733689B6904A89B6825
:10532C00984733689B690220DB6898473C46326893
:10533C0005985368B3FBF0F3E7B2BB42916904F1F3
:10534C00010442D8CB680020984733689B695B689E
:10535C009847316828682EF0C3FB0446DFF8889123
:10536C000026002C53D1564BF35C4FEA8608002BD9
:10537C0031D1544BF35C0193534BA24603EB080B16
:10538C00019B28685FFA8AF7BB4253D84F4BF35CFA
:10539C00002B3CD04C4B019F9844FBB27E2B2868D1
:1053AC0035D8D8F8003007EB030A03AA02AB5146F4
:1053BC002EF0D0FD48452AD0514628682EF010FE1C
:1053CC00013704460028E8D021E012680B6907FB7E
:1053DC0000209847ABE73C4B286853F8267003AA8B
:1053EC0002AB39462EF0B6FD484507D078B9039B81
:1053FC00012B0CD0394628682EF0F2FD344B28686E
:10540C0053F8083039461A682EF0CEFC04460136A3
:10541C002F2EA6D1B4FA84F32E4A5B0913702E4BAF
:10542C009C4241D02DD8002C32D0013B9C423FD025
:10543C00C5242DE0DBF800301F4403AA02AB39462B
:10544C002EF088FD48450AD010B10AF1010A97E701
:10545C00039B8BB9214B029AF35C9A42F5D01F4BFC
:10546C001B4A9B5D52F80820286839462EF00EFC2A
:10547C000028EAD0044689E7394628682EF0B0FDAA
:10548C00EDE7174B9C4211D004339C42D0D1C12480
:10549C002B681B7C23B14FF489711248FEF708FF6F
:1054AC00204609B0BDE8F08FC324F1E7C424EFE730
:1054BC00C224EDE7C624F3E7EC1C0020E81C002016
:1054CC0078CB03008ACA0300D8CB0300A7CB030018
:1054DC00BCCA0300182B002002E000F094CC03009F
:1054EC0004E000F0D4F303000BE000F02E2970B5BB
:1054FC0006460C4615461AD8144A127822B3144A9A
:10550C001068144A52F82110134A125D3AB132460F
:10551C002EF098FCC0B1BDE87040FCF70EBE7F2D9C
:10552C0008BF0025324629442EF0FAFBF2E7FF298A
:10553C0003D9BDE87040FFF7D3BB40F245110748D3
:10554C00BDE87040FEF7B4BE70BD00BF182B002044
:10555C00E81C0020D8CB030078CB0300D4F3030065
:10556C002E28F8B504460D46164619D81449097864
:10557C0029B31449144F0868144951F824103C5DA0
:10558C003CB112682EF010FCC8B1BDE8F840FCF735
:10559C00D4BD7F2D08BF002529442EF077FBF3E7FF
:1055AC00FF2805D91A463146BDE8F840FFF7BCBBC9
:1055BC004FF4BC710648BDE8F840FEF779BEF8BD63
:1055CC00182B0020E81C002078CB0300D8CB03005C
:1055DC00D4F3030008B5084B1B7863B1074B53F8A1
:1055EC002010074B002218682EF06CFC18B1BDE897
:1055FC000840FCF7A2BD08BD182B0020D8CB030037
:10560C00E81C002070B5164685180AB9304470BDE8
:10561C0001F00F030A2B34BF302437242344013A02
:10562C00090905F8013DD2B2EFE70000F0B5F9B178
:10563C0000281CDA2D23B0F1004F137000D040422B
:10564C00012115E0801B8642ECB205F10105F9D968
:10565C0004B927B14D1C303454540127E9B201333D
:10566C00092B09D1303050540131C8B2F0BD0021A2
:10567C000023DFF80CC01F465CF823600025E2E72E
:10568C004CF403002DE9F04F95B04FF0000B02AC39
:10569C0081468A4617461D465E46A0463B7863B94E
:1056AC0002ABE41AE4B2224619465046C847002819
:1056BC0040F093803444E0B290E0252B13D0BBF142
:1056CC00000F14D12370013412AB9C426DD3A4EBA8
:1056DC000804E4B2224641465046C84700287CD113
:1056EC002644F6B260E0BBF1000F00D101373B78E5
:1056FC00632B00F092801BD8392B09D8302B80F00B
:10570C009E80002BCCD0252B51D04FF0000BDBE72B
:10571C00582B00F08B80622BF7D12B6801936B68B0
:10572C0000934FF0000B009B9B4543D10835ECE7F1
:10573C00702B1ED017D8642B01D06C2BE5D16C2BA1
:10574C0005F1040B28686CD17B78752B14BF0121F3
:10575C00002101D0642B00D101372246FFF766FFF0
:10576C0004445D46D1E7752BE9D0782B5ED0732BC2
:10577C00CBD1A4EB0804E4B2224602A9504605F1B1
:10578C00040B2D68C84740BB2644F6B2C4B20130A6
:10579C002B5D002BFAD1224629465046C847E0B96A
:1057AC0026445D46F6B283464446013776E72370BD
:1057BC000134AAE7019B204613F80B100222FFF7D5
:1057CC0021FF12AB984204460ED3A0EB0804E4B2BE
:1057DC00224641465046C84718B1002015B0BDE8D6
:1057EC00F08F2644F6B24446009B013B5B4582BFDA
:1057FC0020232370013412AB9C420BD3A4EB08047E
:10580C00E4B2224641465046C8470028E5D126441A
:10581C00F6B244460BF1010B85E72B682370043577
:10582C00C6E7752B0CBF0021012196E7204602220A
:10583C002978FFF7E7FE05F1040B044691E77A7827
:10584C0002F0DF02582A19D1322B07F1010B09D1D2
:10585C0029882F1D04222046FFF7D4FE3D4604461E
:10586C005F4652E7342B09D12F1D2D680422290CD9
:10587C002046FFF7C7FE0422A9B2EDE74FF0010B5B
:10588C0022E70EB403B503AA52F8041B01920EF0E2
:10589C0055FDC0B202B05DF804EB03B070470000D8
:1058AC000149FFF7EEBF00BFF2C403000EB433B5DD
:1058BC0005AA054652F8041B01920EF03FFD044662
:1058CC002846FFF7EDFFE0B202B0BDE8304003B070
:1058DC00704708B50EF032FDC0B208BD2DE9F04F8F
:1058EC009B46584B85B01B78109F9DF844A0DDF863
:1058FC005080064689461546002B00F09280072AF8
:10590C0000F291800E9B002B00F08D800F9B002BE2
:10591C0000F08980129BB3F5006F00F3848001289E
:10592C0001D1002F7FD0484B03EB05131B7B002BC1
:10593C007BD0464C10220021684636F003FC04EB69
:10594C0045141022B9F1000F5CD14946204636F0BF
:10595C00F9FBA37843F01003A370E37843F0300312
:10596C00E370BAF1000F03D1DBB243F00303E37031
:10597C003649129BCDF800B06A01013B885A01EB05
:10598C00020C63F30E1088520E9BCCF808300F9B60
:10599C00CCF804309DF84C109CF80330012E61F3C8
:1059AC0083038CF8033042D11323CCF80C309CE8E1
:1059BC000F000CF1100E8EE80F00DCF81C20CCF858
:1059CC0014706FF0030161F39F02B9F1010FCCF871
:1059DC001C2004D10F9BCCF81830CCF804701A4959
:1059EC002A018B1841F802800027159A5A60284624
:1059FC009F605E732246694603F0C8FC384605B0CA
:105A0C00BDE8F08F0021204636F09CFB1023A370DC
:105A1C000323E370BAF1000FAAD1DBB243F03003D9
:105A2C00A5E70B48EBE70B48E9E70B48E7E7B8F1CC
:105A3C00000FD4D19CF8023068F304138CF80230B8
:105A4C00CDE700BF9C2C00201C2B00209C2B0020A1
:105A5C00028000F0018000F0078000F038B5104B98
:105A6C001B780546BBB1C0B102F0FFFE0D49002307
:105A7C0001EB0312147B3CB92B60012313731460EC
:105A8C0002F0F9FE204638BD0133082BF0D102F0AC
:105A9C00F2FE0548F7E70548F5E70548F3E700BFD0
:105AAC009C2C00201C2B0020048000F0028000F0B5
:105ABC00018000F038B502F0D8FE0B4A05460023F1
:105ACC00D1180C7B5CB91033802BF9D103F014FC8A
:105ADC00064B28461C7002F0CEFE204638BD2846E8
:105AEC0002F0C9FE0248F9E71C2B00209C2C002078
:105AFC00058000F00D4B1B7810B5044693B10728B8
:105B0C0012D802F0B2FE0A4B03EB04131A7B2AB133
:105B1C0000241C7302F0AFFE204610BD02F0ABFE59
:105B2C000448FAE70448F8E70448F6E79C2C002000
:105B3C001C2B0020068000F0028000F0018000F099
:105B4C0013B5164B1868019000238DF8043002F041
:105B5C008CFE134B1C7824B102F08DFE114802B060
:105B6C0010BD01221A7002F086FE0F4B1C731C77BD
:105B7C0083F82C4083F83C4083F84C4083F85C401D
:105B8C0083F86C4083F87C4004230DEB03008DF804
:105B9C00073003F0D1FB2046E1E700BF70F40300AF
:105BAC009C2C0020038000F01C2B002010B588B02A
:105BBC000E9C07940D9C06949DF8304005940B9C0C
:105BCC0004949DF8284003940024CDE901340092FC
:105BDC000B46024621462046FFF780FE08B010BD5A
:105BEC0010B588B00E9C07940D9C06949DF830401F
:105BFC0005940B9C04949DF8284003940024CDE953
:105C0C00013400920B46024601212046FFF766FE46
:105C1C0008B010BD08B50A4B1B785BB107280BD830
