S01100005A334C69676874536F632E73333739
S3150000000030CC00202D4B030039D10100FD46030002
S31500000010A70A0A010001000004180FAC90679501B9
S3150000002000000000000000000000000000000000CA
S3150000003000000000AC81030000000000000000008A
S315000000400000000000000000FFFFFFFFFFFFFFFFB2
S31500000050FFFFFFFF00700700000000000000000027
S31500000060FFFFFFFFFFFFFFFF28000000000000006A
S31500000070000000000000000000000000000000007A
S315000000800000000000000000F0FF0020F0FF00204C
S3150000009030CC0020C3D40300BE4B0300D0C20020E6
S311000000A0241100200000080000000000F1
S3150000010030CC00202D4B030039D10100FD46030001
S31500000110598A02000147030005470300000000005A
S3150000012000000000000000000000000083650000E1
S3150000013009470300D3280000FB8800000B8D000050
S31500000140A18B020087FE0200FD8800001147030014
S3150000015049F90200C3FE02008DFE02008FFE020076
S3150000016089FE0200A71B0300011E03009143020043
S315000001708D61020011470300114703002748030061
S3150000018083AC0000114703000F1E03001147030054
S3150000019011470300114703001147030011470300ED
S315000001A011470300114703001147030011470300DD
S315000001B0C5FE02008BFE02003D4A0300C5C70200D1
S315000001C0F5FE0200114703002D4A03001147030004
S315000001D011470300114703001147030011470300AD
S315000001E01147030077C2000047E9000011470300EA
S315000001F011470300114703000000000000120348E6
S31500000200016830BF41F000410160704700BF4C31CA
S315000002100E40000080B54549454A0988002000F097
S31500000220C7FB5328A8BF522002BD2DE9FE4300F0AC
S3150000023071F800F068FD0646019400963AA3412243
S3150000024000F05DF800F060F8FFF7E4FF814611E08A
S315000002506A46E1B2404600F054FD50B1BDF80000D8
S3150000026000F0A2FD9DF8020000F08FFD2878401CEA
S315000002702870641CE0B2B04203DA3888C01C81459D
S31500000280E6DA37E02DE9FE4300F044F800F037FDEA
S3150000029006460194009624A3422200F030F800F0AE
S315000002A033F8FFF7B7FF81461DE06A46E1B24046E4
S315000002B000F023FDB0B1BDF8000000F075FD9DF81B
S315000002C0020000F062FDBDF8040000F06DFDBDF80F
S315000002D0060000F069FD9DF8080000F056FD28783C
S315000002E0401C2870641CE0B2B04203DA388808303B
S315000002F08145DADA00F0F4FA0120BDE8FE834FF416
S315000003008051092000F0A5BE39880A48451800200A
S3150000031000F03BBD04460848084F01680A6892F899
S315000003200580404670470000757500009EFC002061
S3150000033048D8002054D8002030D9002074FF00206F
S3150000034080B501F084FAFF2805D0032803D2DFF830
S315000003500018085C02BD002002BDE0B50221009134
S3150000036001AB0022032101F0C7FD20B9BDF804004E
S3150000037010B1012000E00020C0B20EBDF8B5069F06
S3150000038000240025092F064602D300200021F4BDD3
S31500000390A4460DE0A7EB000EB6442D021EF8010C94
S315000003A045EA1465002110EB04244D410CF1010CC3
S315000003B05FFA8CF0B842EDD39D4206D828BF94422E
S315000003C003D2101B63EB0501F4BDA01A65EB030114
S315000003D0F4BD10B50268DFF87C1713880B805488CB
S315000003E04C8052790A7103681A794A714FF48A531C
S315000003F0CB80026893799A06DFF85C2744BF4FF4F6
S315000004008B53CB801378816939B9C088DFF84C17D4
S31500000410088003F0FD03137010BD43F00203137050
S3150000042016228169DFF83847204601F05EFF002278
S31500000430227010BD80B5002001F0BBFFFF2001F047
S3150000044061FA01F0C4FF00F0CEFE02460121DFF89A
S31500000450000701F091FFDFF8FC36DFF80827DFF828
S315000004600807522100F0CFFD01F0FDFF02F025F94B
S3150000047002F030FA03F0CCF903F0B5FE03F0D6FE35
S31500000480BDE8014000F087BF704780B503F0ADFFBF
S3150000049020B905F0A7FA08B903F091FC00F049FC71
S315000004A0BDE8014000F054BC70B5034600224FF68B
S315000004B0FF70DFF8B84601E0521C92B234F83250B1
S315000004C085420CD09D42F7D1B3F57C4F06DB04EB99
S315000004D0C2056E888E4201D00D00EDD1104670BD6A
S315000004E010B50446FFF7E0FFDFF884160B884FF6D9
S315000004F0FF72904203D12246DFF8781606E0DFF855
S315000005006C1601EBC000DFF870164268BDE81040BB
S31500000510184605F044BBDFF86406006800B1008A9F
S31500000520704710B504462168487901F090F9FF2814
S315000005301DD0DFF84C1601EB0010217F027B8A42AA
S3150000054015D1226840881188884206D04FF6FF737D
S3150000055099420CD1B0F5004F09DA2079022818BF6C
S31500000560032806D11189507905F028FD08B9002025
S3150000057010BDA07B0028204602D005F06DFD01E0ED
S3150000058005F09AFD00B1012010BD7CB51646327803
S3150000059054074CBF052203229342DFF8E84504D2F4
S315000005A000922246DFF8E01535E0089D069A28609D
S315000005B02971EA80AE60AB81307800F00100A87343
S315000005C03178890801F00101E97301213078297534
S315000005D0C00800F001006875E87B40B11A46304655
S315000005E000F040FC2882287D801C287500E02882C7
S315000005F0287DAB89411C2975305CA874481CC9B29A
S315000006002875715CE974C6B2B34209D2C0B20090D3
S315000006102246DFF87815022005F0BBFA002076BDE9
S315000006200798A86106F049F82877012076BD2DE9DC
S31500000630FE4F81460E4692460D9DDFF85475DFF853
S3150000064054159B463846202206F026F9BDF83000A0
S31500000650DFF828850090029701955B4652463146A1
S315000006604846FFF792FF0024002872D0C8F80070B1
S31500000670B97CDFF82425DFF82435117018780028B6
S315000006803AD006F0A1F90246DFF81415022005F06B
S3150000069086FA38684188BA8900914379DFF80415EB
S315000006A0022005F07CFA022005F034FA20B1386801
S315000006B0398A4088FFF714FFF87B28B13A8ADFF8B9
S315000006C0E814022005F06BFAF87CBB7CDFF8DC143A
S315000006D00090B8680278022005F061FA397DBA897F
S315000006E0B868521A0144012392B2022006F084F936
S315000006F07CA1022005F04DFA3846FFF76AFE38461F
S3150000070006F01FFA20BB2DBB042E18BF052E03D002
S31500000710022E18BF032E01D1012200E00022386804
S31500000720F98801910121438800930388F87C00F041
S315000007301EF990B13868817988060ED4DFF87044C6
S31500000740012121700022384600F0D2F800202070E6
S31500000750012430E0287D81072DD538684179FF29AD
S3150000076025D10026DFF8EC5300F03DFDF1B28142C1
S3150000077021D2F0B201F06DF88146F0B200F037FDFB
S3150000078098B1386841883A8A484600F0A9FF60B1B6
S315000007903846FFF71EFE386880F8059085F8049005
S315000007A03846FFF7BEFE00B10124761CDCE738466A
S315000007B0FFF7B7FE044600F0D1FA16220021DFF853
S315000007C0A00301F0D9FD0020C8F800002046BDE8CE
S315000007D0FE8FDFF8E0130878401C0870FFE700F092
S315000007E07F007047DFF870130A78002814BF42F0C4
S315000007F0010202F0FE020A707047DFF8BC130870AF
S31500000800704780B1DFF8B0130978012904D1018857
S3150000081041F0400101807047022904D102884FF659
S31500000820BF710A400280704778B1DFF890130A78EA
S31500000830012A04D1DFF8882313780B7001E0022A1D
S3150000084003D1017841F0100101707047FEB5DFF861
S3150000085008532B78D90701D50020FEBDDFF81C13FD
S31500000860BC4C096871B109688A79960603D5E28895
S3150000087042F02002E28089794A0603D5E18841F0F8
S315000008804001E180B84A11784E07C34947BF0F7847
S31500000890D7700E7856709B0709D5B2480188B048C4
S315000008A006F042FB297801F0FD012970FEBDAB4B35
S315000008B01D8829464FF6FC76B14208DA019000926F
S315000008C02246A8480388002006F051FDFEBD009090
S315000008D01346A44802882146284606F015FDFEBDAB
S315000008E00020B3E75D0000000146A448006800222E
S315000008F070B504460E462079002818BF0128154613
S315000009000BD1A0680178CA0601D5300005D0A07BBE
S31500000910002804BFE07C0B2801D1002070BD914A5D
S3150000092000211180607D00B90821E07B18B90846D6
S3150000093000F02BFA06E041F0040000F026FA208AC7
S3150000094000F032FAA07C00F020FA0B2000F01DFA2D
S31500000950E07C00F01AFA304600F017FA2046FFF75E
S3150000096038FD2846BDE8704070E70022C0E770B544
S315000009701D46944B8E4E1C78012C01D0337813B152
S315000009800020307070BD0B0002D10AB1002070BD8E
S31500000990002C1EBF049C4FF657439C4206D00346CC
S315000009A00A462146284600F057F900B1012070BDDD
S315000009B038B5D2885224950648BF4924550548BF04
S315000009C0083C150548BF083C1204034648BFA41E50
S315000009D00846032B4FF6FD710ED8DFE803F0090237
S315000009E0060BC0B207F0BAF802E0C0B207F0CCFAC4
S315000009F0014601E0641EE4B2084600F048F9241AF4
S31500000A00E0B232BD42540844120A427070470844AC
S31500000A10110A0270130C120E41708370C270704777
S31500000A2070B50C001646054608BF00260FD0207884
S31500000A30FF2808BFFF260AD0204600F035FA864276
S31500000A4088BF06463246611C681C01F04EFC2E70BB
S31500000A5070BD70B50C000546164603D100206870BF
S31500000A60297070BD2078FF2804BF6078FF2802D166
S31500000A702870687070BD204600F01BFA864288BF59
S31500000A8006463246A11CA81C01F02FFC2E70360A21
S31500000A906E7070BD2DE9F041541E002B3ED0042A25
S31500000AA037DC00230026984614E0651B002814BF97
S31500000AB010F805C04FF0000C571EA7EB08074D5D58
S31500000AC0FF000CFA07FC05FA07F74CEA03033E435E
S31500000AD008F101085FFA88F59542E6D3042A10DA90
S31500000AE0D5000120D2006D1E00FA02F2524243FAEE
S31500000AF005F1CC0748BF134346FA05F0C00748BFC7
S31500000B0016439E4215DBB34203DA4FF0FF30BDE8D1
S31500000B10F0810020FBE7AE42F7DB5B1CDDB29542BD
S31500000B20F7D2651B00280CBF0026465D4D5DB54219
S31500000B30F1DA0120EBE70021234A01E0891CC9B262
S31500000B40535C8342FAD35018407870470000000087
S31500000B500CD9002048D80020A2FF00209EFC0020CF
S31500000B6034D9002074FF002054D800201C6C0300E8
S31500000B7078FF0020686B0300806B030030D90020EB
S31500000B80ACD60020F86B0300DC6B0300006C03009E
S31500000B9010D9002068D10300C0D20020BCD20020AA
S31500000BA0886B0300906B0300B06B0300BC6B030003
S31500000BB09EFF0020C1D200209FFF0020A0FF002042
S31500000BC0A1FF0020BFD200206C6C03002838082843
S31500000BD08041C00F704710B500F009F8FF2801D119
S31500000BE0A32010BD002104F83010002010BD0446DB
S31500000BF0084600F02CBE38B500F00BF8FF2801D1EE
S31500000C00A32032BD294604EBC000BDE8344001F004
S31500000C105ABC04460846154600F019BE40B11C28C9
S31500000C200BD01D280CD01E2818BF1F2805D009E0A0
S31500000C300B39102906D2002070471B29FBDB01E087
S31500000C400929F8DB8A207047704701207047012088
S31500000C50704701207047704700207047002070479A
S31500000C600020704700207047002070470020704722
S31500000C700120704701207047B5207047002070475B
S31500000C800020704700207047002070477047002002
S31500000C9070470020704770470020704784207047D7
S31500000CA0704770477047704770477047704700201D
S31500000CB0704770477047704700207047704707F0CD
S31500000CC021BB03207047002070470348016808785D
S31500000CD0012808BF02207047A8D8002000207047CE
S31500000CE04FF6FE72C28101218181016100220270EC
S31500000CF001207047704770477047002070470020FA
S31500000D0070470020704700207047704700207047EA
S31500000D107047002070470020704700207047002071
S31500000D207047002070470020704700207047002061
S31500000D3070477047B5207047002070470020704705
S31500000D4070470020704770477047B520704770475E
S31500000D5070477047002070477047704780B54C4910
S31500000D600020087007F078FB4A4A108052220021C2
S31500000D70494801F001FB4949002008800C22BDE8E2
S31500000D8008400021464801F0F7BA10B543490A88E1
S31500000D90522A07DA404CA054521C0A8092B2A0187C
S31500000DA0401E10BD002010BD38B50546C0B2FFF785
S31500000DB0ECFF0446280AFFF7E8FF002C18BF0028BE
S31500000DC001D0204632BD002032BDF8B50746C0B27C
S31500000DD0FFF7DBFF06463804000EFFF7D6FF054691
S31500000DE03802000EFFF7D1FF0446380EFFF7CDFF9D
S31500000DF0002E18BF002D05D0002C18BF002801D0EA
S31500000E003046F2BD0020F2BDF8B5244D2B880C46C5
S31500000E102646F718522F0CDA1F4F01462246F818BD
S31500000E2001F063FA2B88E4182C80A4B2A41B3819AD
S31500000E30F2BD0020F2BD30B504460020CD18AA420E
S31500000E4008DA30BD51FA83F222445B1E12F8015CC7
S31500000E5005EB0020DAB2002AF4D130BD0423EAE71C
S31500000E600323E8E780B50223FFF7E5FF80B202BD62
S31500000E70034691420B4800D3704710B55C5CFF2CCB
S31500000E8008BF00240C19641CA242A8BF581810BD44
S31500000E90A2FF00209EFC002054D8002074FF0020F2
S31500000EA048D8002076FF00200078FF2808BF0020E1
S31500000EB0704780B502220021FFF7D4FF4FF6FF727C
S31500000EC0904208BF002002BD2DE9F24F022940F3EF
S31500000ED09580190005D0BDF800100529F7DB42F012
S31500000EE004028246012618008AF8002005D08AF8F6
S31500000EF0013003261B0A8AF802304FF0000B0A9CC9
S31500000F00FFF767FC0AF80600761CB0B2761C0AF8F2
S31500000F100040DDF8309007E0BAB24146504401F097
S31500000F20E4F9BE190BF1010B0B985FFA8BF1405CEB
S31500000F30002865D0002500247328A04634DC4C2800
S31500000F4059F8048B1CBF5328622811D159F8047B29
S31500000F504C2806D1BDB24FF6FF70854236D002242A
S31500000F6034E0532832D1FDB2FF2D2FD001242DE0DD
S31500000F706C2804D14046FFF79CFF871C26E07328A7
S31500000F8004D14046FFF790FF471C1FE0A0F1300157
S31500000F900A2938BFA0F1300718D3A0F1410107296B
S31500000FA02CD2A0F1370711E00027752808BF0124CD
S31500000FB00AD0762808BF022406D0782808BF032462
S31500000FC002D077281AD1042459F8045BB9B2BDF8C7
S31500000FD0000011FA86F10919884205DA0EE00AF8CE
S31500000FE00050761C2D0A641EE1B20029B0B2F6D17B
S31500000FF0B9B2002996D0B8F1000F8DD1002000E0DB
S31500001000B0B2BDE8F28F10B54D4C20604D4801805E
S315000010104D490A604D4A136010BDFEB50C4600935B
S3150000102009A902911346474E454F089D31880195FF
S3150000103002463868FFF748FF00F001F8FEBD424956
S31500001040424B0A6810804FF48A5219684C80CA8055
S3150000105070477FB50C4608A900920291394D384E6B
S3150000106001930246298830680023FFF72DFFFFF71A
S31500001070E6FF04B070BD38B5334C256829880346B1
S315000010802F4802683148006801B0BDE8304006F0DC
S315000010909AB90020EFE77FB500F028F806F0D8F8F7
S315000010A004B070BD0023F6E7274B254810B51C6831
S315000010B00268218825480068BDE8104006F0EBB8B4
S315000010C07CB50192204D1E4A2E68146800941F4C70
S315000010D03388226806F04BF976BD0022F0E77FB52B
S315000010E000F004F806F028F904B070BD00910293F0
S315000010F00192154C124925680B68144E2A883168EE
S3150000110070470023EBE7F8B50D4C0F4E256837689E
S315000011100E4E84B003953C88BDF828500294019584
S3150000112034686588009506F082F905B0F0BD074879
S3150000113000687047054A1368187110684171704756
S315000011403CD80020C2FB002040D8002044D8002014
S31500001150F8B5DFF80819DFF808490A68DFF8041956
S3150000116088B003A80260D1E90027D4E9005604A894
S3150000117006ABC0E90027C3E90056DFF8EC18DFF834
S31500001180EC480A68256801A802AB02601D600321CD
S31500001190684607F0AFFBDFF8D818DFF8D808032257
S315000011A00A70002106AE03ACDFF8CC28655C02EBC2
S315000011B0011204AC157036F81130538034F8113032
S315000011C0938002AC01AB655C95715C5C00EBC40579
S315000011D0956001251DF801401473491C02295573B9
S315000011E0E1DD09B0F0BDDFF8880800787047DFF868
S315000011F0881801EB0010407B00F001007047412881
S3150000120018BF422803D0432818BF442801D1012023
S31500001210704700207047412818BF422801D101209D
S31500001220704700207047432818BF442801D1012089
S31500001230704700207047F8B515461E46069A079B6C
S31500001240044600F062FA60B1042100F06AFD07006E
S3150000125007D0204601F0B2F8324629462046B84764
S3150000126095E0F1BD2DE9FE4314001CBF0A9D002D3B
S31500001270064688461F4620D0FFB128780C9B0107FA
S31500001280618820794CBF4022802200F03EFAA0B14E
S31500001290082100F046FD814678B1207901F08EF8EC
S315000012A09DF82C00019000953B462246414630466B
S315000012B0C847BDE8F74301F08AB8BDE8F783F8B53B
S315000012C01646069C1A460546234600F01EFAD0B17D
S315000012D021000BD1022100F024FD040013D0284682
S315000012E001F06CF831462846A0470BE0102100F0CB
S315000012F018FD070007D0284601F060F8224631465F
S315000013002846B84743E0F1BD2DE9FC411746089C45
S315000013101A460646234600F0F8F908B9862016E074
S3150000132000259CB9202100F0FCFC804670B10A9C87
S31500001330099D304601F042F80B98009023462A4654
S3150000134039463046C047054601F041F82846BDE813
S31500001350F681F8B50446A568207801F02FF8002636
S3150000136011E02868F1B214225143471820783988D1
S31500001370FFF771FC0121384600F0D3FC01001CBFC9
S3150000138020788847761C2979F0B28842E9D3BDE8EF
S31500001390F14001F01CB838B50024DFF8D4560AE055
S315000013A0DFF85C0A210600EB1150427BD10748BFEB
S315000013B0FFF7CFFF641C2978E0B28842F0D331BD35
S315000013C05CB585B00A9C8DF80800ADF80A108DF85A
S315000013D00C30ADF80E2000260196ADF810400096B0
S315000013E00023002201A902A800F059F8019807B0CD
S315000013F050BD10B5002301E0001D5B1C9CB28C4261
S3150000140004D204889442F7D1408810BD002010BD54
S31500001410DFF8F019401A0C2290FBF2F292B200218A
S31500001420DFF8E409E5E70288B2F57C4FA8BF00F0D3
S3150000143002B80846ECE7DFF8D419401A142290FBEC
S31500001440F2F292B20021DFF8C809D2E710B50C46D5
S315000014500188628891420DD1037B2279134209D01B
S31500001460B1F57C4F04DBFFF7E6FF2189884201D105
S31500001470012010BD002010BD10B514460A88E3886F
S315000014809A420AD10288B2F57C4F04DAFFF7CBFF05
S315000014902189884201D1012010BD002010BD2DE90F
S315000014A0F74F82B004469A460025002704E080687C
S315000014B0C1886D187F1CFFB2DFF8B4150A78974211
S315000014C080F0D380DFF8B005237800EB07100278B0
S315000014D09A42ECD181680091407BC107EAD54FF072
S315000014E0000804E0B9F80A002D1808F1010800996F
S315000014F00A795FFA88F09042DCD20A685FFA88FCC3
S31500001500142010FB0CFC02EB0C0921464846FFF7A1
S315000015109DFF0028E6D04FF0000B07E0307910F071
S31500001520300F04BFF0782D180BF1010BB9F8081035
S315000015301FFA8BF08842D8D2D9F804001FFA8BF232
S315000015400C214A438618224631464846FFF794FF47
S315000015500028E3D027460398344600B1046020797A
S31500001560810611D5DFF89C08002105E00279930673
S3150000157044BFC27889180C30A042F7D3DFF894082C
S3150000158089B200EB010B04E0DFF88C18ADB201EB79
S31500001590050B0E9E049D3046CEB121464846FFF708
S315000015A042FF0246238879883878FFF752FBA8461F
S315000015B0E8B12079C10625D5002E2146484618D027
S315000015C0FFF731FF00F055F8FFF754FB4EE0002D12
S315000015D04CD021464846FFF726FF024623887988E5
S315000015E03878FFF734FBD8460028AB46E1D17E2099
S315000015F03CE0FFF718FFE178019100F03AF8FFF7B9
S3150000160037FB33E0A0785FEA0A010CBFE278524666
S31500001610412818BF422808D043280DD1921E92B205
S3150000162041465846FFF715FA1DE0521ED2B2414612
S315000016305846FFF7F5F916E04428EFD03EB95FEAC1
S315000016400A0004D0E078824538BF89200ED3B8F16D
S31500001650000F04D10021584600F08EFE03E04146FB
S31500001660584600F042FE002000E0862005B0BDE8A6
S31500001670F08F0095034679883878224670472DE921
S31500001680F8430546894617469846002603E0217B1F
S315000016900A0615D4761C2979F0B288421DD228682C
S315000016A0F2B214235A43841820884845F2D13900EF
S315000016B006D0802FEBD0402FECD1217B4A06E9D50E
S315000016C0B0F57C4F07DB2046FFF7B5FE404518BF57
S315000016D0B8F1000FDED1204600E00020BDE8F2831D
S315000016E080B5134607E080B51346402204E080B576
S315000016F01346802200E0002200F007F800B1012026
S3150000170002BD80B500234022F6E770B50C461546AB
S315000017101E4600F09CF8FF2801D1002070BD21462E
S31500001720DFF8DC4604EB0010334680682A46BDE845
S315000017307040A4E770B50C4615461E46002100F021
S315000017402FF8032800DAEAE7002070BD134640228E
S3150000175001E00022FAE72DE9F84F82468B469046D3
S315000017609946FFF7D2FF002608B9FF2016E00027AA
S31500001770DFF80443DFF8F85208E04B464246594684
S31500001780FFF7D8FF00B1761C7F1CFFB2287887428E
S3150000179003DA3901605C5045EFD1F0B2BDE8F28F53
S315000017A070B50022DFF8D03200E0521CDFF8C042EC
S315000017B02578AA420BDA14011E5D8642F5D10D008A
S315000017C003D01C44647BE507EFD5D0B270BDFF2083
S315000017D070BD80B50021FFF7E3FFFF2801D100208F
S315000017E002BD00F061F8407B00F0010002BD70B55B
S315000017F00E4604460021FFF7D3FFFF2801D1002043
S3150000180070BDDFF8FC1501EB00153200687B00F0B7
S31500001810010114BF40F001000020B142687314D0EA
S3150000182076B12846FFF795FD0FE000681422514374
S315000018300844027B0188D209204600F0A7FE761CE8
S31500001840A8680279F1B29142EFD3012070BD01215F
S31500001850A6E7DFF8AC150001085C7047F8B50C4642
S31500001860FFF7F5FF01460020FF291FBFDFF890258F
S3150000187002EB01118968002915D0002214270DE01A
S315000018801B0608E00D68D6B27E43AB19451C1B7BD0
S315000018902600F5D05B0648BF2846521C0D79D3B208
S315000018A0AB42EFD3C0B2F2BDDFF8541501EB001026
S315000018B07047F8B50C461546FFF7C9FF0021FF280B
S315000018C01ED0DFF83C35002203EB00134FF0140C5A
S315000018D001E0491C521C98680779D6B2BE420FD265
S315000018E000681CFB06F630442F00067B02D0760605
S315000018F002D4EFE73706EDD5CEB2A642E9D1F2BD66
S315000019000020F2BD002109E010B50446012100F0D7
S3150000191005F82046BDE8104005F012B92DE9F14F53
S3150000192086B0884604F0C9FE51490A7805900492AB
S315000019300026DFF8CC0406E000EB01110A7B0599CE
S315000019408A420ED0761C049AF1B291427CDA9DF856
S315000019501830FF2BF0D01846FFF779FFFF28064610
S3150000196079D04FF0000A01E00AF1010ADFF890048D
S31500001970320600F10801120D5FFA8AF389580A79D6
S3150000198093425CD2096814204343CD1840F22D11CE
S315000019902A898A42A8BF06F0E3FF34064FF0000901
S315000019A0240D1BE00328ACBFD7F808B007F1080BDD
S315000019B00120009000235A46002101A8FFF76FFD81
S315000019C05FEA080008D0DFF83804015DBDF806209C
S315000019D03B46584600F0EDF809F1010929891FFA3E
S315000019E089F08842C0D268681FFA89F20C214A43FE
S315000019F087183B79D806EFD4DFF804140A5D8DF812
S31500001A0004202B88ADF80630387941064CBF80217A
S31500001A1040218DF8081028463988ADF80A10394655
S31500001A20FFF701FDADF80C003979F8784A07B9D50A
S31500001A30D7F808B00328BBDBDBF800B0B8E79DF8A1
S31500001A401810FF293FF47EAFB8F1000F04BF9DF8D0
S31500001A50180000F013F807B0BDE8F08F185A03001D
S31500001A601C5A0300245A0300305A03002C5A030060
S31500001A705FFF0020A0600300ACD600207CB50446C2
S31500001A8004F01BFE0546012000F0AEFC012C44F2DA
S31500001A90030603D0FF2C08BFA84227D101237F22CB
S31500001AA0222100F083F800F07CF800F06FF80123A3
S31500001AB07F22232100F07AF83020009001AB3246D5
S31500001AC000F064F801237F22242100F06FF8202023
S31500001AD000F068F8082100F05AF801237F2225213A
S31500001AE000F064F800F056F800F051F8022000F01B
S31500001AF07BFC022C03D0FF2C08BFA84240D1012357
S31500001B007F22262100F052F800F04BF8062100F063
S31500001B103AF801237F22272100F048F83020009070
S31500001B2001AB3246062100F02EF801237F22282140
S31500001B3000F03CF8202000F035F8082100F023F8EA
S31500001B4001237F22292100F031F800F023F800F06C
S31500001B501AF802237F222A2100F028F8212000907B
S31500001B6001AB072200F00DF802237F222B2100F0A3
S31500001B701DF82120009001AB44F2100200F001F89C
S31500001B8073BD4FF44071022000F087B90621012091
S31500001B9000F083B92020009001AB4FF48042082169
S31500001BA070471020009001AB0022704701A806F094
S31500001BB0DABF2DE9FC411D460446287983070E4607
S31500001BC0174640F1A58002220021684600F0D4FBAA
S31500001BD004B96C46012E44F203083AD1062F1AD1F5
S31500001BE0288850B900F09AF838B92879410604D403
S31500001BF000F090F8222006F0E9FF288840450BD136
S31500001C0000F08CF8002807D1287941061CD400F092
S31500001C1081F823207AE0082F7AD1288850B900F07D
S31500001C207DF838B92879410604D400F073F82420E9
S31500001C3006F0CCFF2888B0F5804F69D100F06EF829
S31500001C40002865D12879410662D400F063F8252082
S31500001C505CE0022E5CD1062F1AD1288850B900F01C
S31500001C605DF838B92879410604D400F053F82620E7
S31500001C7006F0ACFF288840454AD100F04FF800280E
S31500001C8046D12879410643D400F044F827203DE0A8
S31500001C90082F1AD1288850B900F040F838B92879A9
S31500001CA0410604D400F036F8282006F08FFF288875
S31500001CB0B0F5804F2CD100F031F848BB28794106A9
S31500001CC026D400F027F8292020E0B7F5407F1FD161
S31500001CD0288807280BD100F021F840B92879410659
S31500001CE005D4022322467F212A2006F06FFF28888A
S31500001CF044F2100188420BD100F010F840B928795F
S31500001D00410605D4022322467F212B2006F05EFFE2
S31500001D10BDE8F381012322467F2170472846FFF75D
S31500001D2077BB30B5047B012200230C4205D100208D
S31500001D3030BD144218BF5B1C5200D5B28D42F8D399
S31500001D400069DBB250F8230030BD3449401A8003E5
S31500001D50020C00213248FFF74CBB2DE9FE4F00274D
S31500001D600028487D4FF0010806D008B9022407E094
S31500001D70012804D1012403E008B9082400E0042462
S31500001D800D9EDDF83CB0ADF80020B9468A460193B9
S31500001D90224901EB8905BDF800102888884223D125
S31500001DA0EA78224220D0A9789DF8380081421BD3D8
S31500001DB09AF80F00D20608D5B0B12846FFF7C5FF3E
S31500001DC0BAF81010814201D00EE068B9BB4513D0B5
S31500001DD0BDF8300087420FDA0198A978C1557F1CFB
S31500001DE03288521C3280BFB209F10109B9F14B0F9A
S31500001DF0CEDB4046BDE8FE8F4FF00008F9E7000055
S31500001E00ACD600209C5B0300BC600300745F03003B
S31500001E10B86003007CD70020DCD600206C5A030093
S31500001E20985B03002DE9F84785B00F9F109D0E9C27
S31500001E300295019706468A46904699460094FEF713
S31500001E4004FF010003D0022803D002D310E00120D2
S31500001E500EE00CBF012000200021049103900295A2
S31500001E60019700944B4642465146304600F06AF9C7
S31500001E7006B0BDE8F08778B585B000240494012546
S31500001E8003959DF82C600A9C0296002521E078B502
S31500001E9085B000F008F880231DE078B585B000F025
S31500001EA002F8402317E09DF82860019300240125DD
S31500001EB00494039502960094704778B585B0012482
S31500001EC00025049403959DF830600B9CBDF82850BE
S31500001ED002960194009500F035F906B070BD7FB505
S31500001EE0099C0A9D02940026089C0395019400967D
S31500001EF000F0DAF904B070BD38B584B000F002F82D
S31500001F00402308E0089C0193002503950294009560
S31500001F107047089C019400F0C7F905B030BD2DE963
S31500001F20F84F84B09046DDF838901C4605468A4640
S31500001F304B4622460026ADF80060FFF7E6FB070099
S31500001F40B3468DF80450ADF806A08DF80840ADF8FC
S31500001F500A80ADF80C904BD001A9FFF777FA00285C
S31500001F6046D0ADF80280DDF83C90DDF840A0BDF823
S31500001F700080002415E0B1B249450FD2FEF714FFE8
S31500001F80A878FEF702FF5FEA0A0006D02879C107A3
S31500001F9054BF05200720FEF7F8FE761C08F101085D
S31500001FA0641C3989A0B288421AD27868A2B20C2180
S31500001FB04A433B888518B3F57C4F09DA2888ADF883
S31500001FC00A0001AA29463846FFF756FA0028E7D044
S31500001FD02888BDF802108842CDD20BF1010BDDE74F
S31500001FE01FFA8BF111FA86F01FFA88F1884201D1A7
S31500001FF0012000E0002005B0BDE8F08F2DE9F8478C
S3150000200095B04FF00009DFF8308101E009F10109D0
S31500002010FFF7E9F85FFA89F181424AD24FEA09608F
S3150000202000254FEA105A00E06D1C08F10800E9B2DD
S3150000203050F80A0002799142E8D20168EBB2142006
S315000020404343CE1800271FE0A078FFF7ECF8D0B185
S3150000205004A8FEF72EFF16E000210391412202920A
S3150000206004A9019100902288318818F80A0000F02E
S315000020701BF9862807D0A078FFF7CDF80028E3D013
S3150000208004A8FEF711FF7F1C3189B8B28842CBD273
S315000020907068BAB20C214A43841806F061FC2146E6
S315000020A03046FFF7C0F921794A064CBF802340230A
S315000020B0D2E716B0BDE8F087F8B596B015461D9C78
S315000020C0052C2FDB04AA03924126BDF8702000924E
S315000020D005AF029601972A4600F0E6F8060023D1DE
S315000020E09DF8100005A906F0EBFD0646241FB44234
S315000020F018DB2846FEF758FE0020FEF746FE9DF840
S3150000210010000E4CFEF741FE2088C0F152018E42AF
S3150000211008DA0B4B324605A9184400F0E6F8208889
S315000021203618268017B0F0BD2846FEF73DFE30462D
S31500002130FEF72BFEF6E70000ACD6002074FF002069
S3150000214054D800202DE9F84F88B00546129C8946E0
S3150000215092469846002004908DF81450ADF81690DB
S315000021608DF81880ADF81AA0ADF81C400090002339
S31500002170002204A905A8FFF792F9049808B9862059
S3150000218082E0159860B904999DF850008A789042CB
S3150000219018BF8D2078D10979C80758BF882073D514
S315000021A004980179139E480726D5049988684168E2
S315000021B00498029181688868049901908878FEF7EE
S315000021C005FD83460498C1788DF8001003290A4658
S315000021D05B4631462ADA02A8FEF75CFC07469DF804
S315000021E000205B46314601A8FEF754FC012F1CBFB8
S315000021F04FF0FF31884228D01698002843D100F0CE
S3150000220046F8FEF786FD01003ED100F040F8FFF7E4
S315000022107BF8010038D101200090002332460021CE
S3150000222005A8FFF73CF9010011D02DE00298FEF752
S3150000223031FC012809D09DF8002001985B46314603
S31500002240FEF728FC10F1010FD6D187201CE0049B75
S315000022504A4629463046FFF7ACFC029600944346B0
S315000022609DF85000019052464946284601F0BFFDB0
S3150000227000F00DF8FEF74CFD0094434652464946E1
S315000022802846FFF71CF8002009B0BDE8F08F03963A
S3150000229043460498C1789DF850000291019000943D
S315000022A05246494628467047F0B585B01C460A9EF8
S315000022B00B9D0C9B002701978DF80800ADF80A10BE
S315000022C08DF80C40ADF80E20ADF8106000972A4648
S315000022D001A902A8FFF7E3F8010004D10D9911B195
S315000022E0019A93780B7005B0F0BD70B5814224D287
S315000022F010441144401E491E10E011F8013900F83F
S315000023000139121F11F8014900F8014911F8015964
S3150000231000F8015911F8016900F8016993B2042B1C
S31500002320EBDA93B2002B1EBF11F8013900F8013920
S31500002330521EF6D170BD00F00DF893B2042BFADAF6
S3150000234093B2002B1EBF11F8013B00F8013B521E51
S31500002350F6D170BD11F8013B00F8013B121F11F8D0
S31500002360014B00F8014B11F8015B00F8015B11F815
S31500002370016B00F8016B7047130003D00A4619463B
S3150000238006F0BABC704710B5034600E0521E90B284
S3150000239018B100F003F8F9D0001B10BD13F8010BBB
S315000023A011F8014BA04270470C490D480860002007
S315000023B0704700B1702070470020704780B500F06C
S315000023C013F8FF2801D1A32002BD002002BD002082
S315000023D07047704700BF034800787047A8D80020B0
S315000023E036B30300ACD6002080B5FFF730FAFF28DD
S315000023F018BF002002BD00210170704700F071B8BF
S3150000240070B5044616460D463046FFF7D7FF002046
S3150000241020703046A847BDE87040FFF7D8BF0122BC
S3150000242049494A48ECE7012249494A48E8E7012276
S3150000243049494A48E4E7022243494948E0E702227B
S3150000244043494848DCE7022243494748D8E7012286
S3150000245046494748D4E7022244494648D0E7F22293
S3150000246042494548CCE780B5012006F061FD434866
S3150000247006F0F2FC4249087001BD80B506F06CFD1D
S31500002480012805D03E480078BDE8024006F0CFBCE2
S3150000249001BDF0B5002400E0641C3A4D2E88E3B27D
S315000024A0B3420ED2E7B20C25374B6F433B441E783E
S315000024B0864201BF5D888D421E799642ECD1184650
S315000024C0F0BD0020F0BD80B519B906F031FC002042
S315000024D002BDB1F1004F02D206F034FCF7E702204C
S315000024E002BDB1F5000F3CBF0902FFF7ECBF0220A9
S315000024F0704770B505461E46FFF7CBFF04000ED0A9
S315000025002846FFF766F950B1A0683146FFF7DBFFB2
S3150000251028B905980499A0716171002070BD022048
S3150000252070BD1CB500F004F80022FFF7E2FF16BDEF
S31500002530009313469DF810400194704780B5002320
S315000025400093FFF7EEFF02BDDB66020014D6002003
S315000025502F6B02001CD60020456F020024D60020F7
S315000025602CD6002034D600203CD600201D68020060
S3150000257044D600204CD6002054D600200455030033
S31500002580EFFA00208CD2002058CC002080B5FFF74F
S3150000259080FF20B1806800210170002002BD02206A
S315000025A002BD0022F2E7704780B5A749022003F07A
S315000025B0F0FAFF20FFF7A8F9FF2003F000FDFF2047
S315000025C007F0A6F805F064FE00F077F8FEF793FB37
S315000025D09E490020088001BDF8B500F0A4F80098D7
S315000025E000F0010005B000BD18B587B001A9684626
S315000025F006F000F9964C9DF80F00A0700822BDF871
S315000026000C00208001A9201DFFF76FFE9DF8140025
S315000026106073002200212046FEF76EFB8B490020E6
S31500002620088008B010BD80B5684606F0EDF893281E
S3150000263009D1884801680A788DF80020012A04BF6C
S3150000264002218DF800109DF8000002BD70B590B013
S3150000265004460D4616462C22002105A8FFF78CFEDF
S315000026608DF81640ADF8146006A8FEF70FFB01A81A
S3150000267007F010FF0198ADF83A00FFF7D4FF8DF888
S315000026803C0000F053F8294605A807F0A6FB0446CF
S315000026909DF83C00704A714900902346012003F0E2
S315000026A078FA200004D16948018841F480710180DC
S315000026B0204610B070BD07F00BBF1FB507F042FFF4
S315000026C0032400B1072407F03FFF08B144F00804D3
S315000026D0204607F000FF624807F007FF614807F051
S315000026E007FF00F020F80098C1071BD55E490220BD
S315000026F003F04FFA574801680878012808BF0220FE
S3150000270007F0EFFB07F022FF00F00DF8009840F00D
S3150000271080000090684607F0C8FE00F007F8032026
S3150000272003F0CCF91FBD684607F0B4BE78B58FB08C
S3150000273005A84E49282204F0AFF805F091FE08B12D
S3150000274000201BE001A803F0AAF90400484D494EF9
S3150000275003D000903246484B0BE005A8FEF7CAFAB4
S3150000276005A901A807F089FB040006D000903246AF
S31500002770424B2946022003F00CFA204610B070BDE9
S3150000278010B5324C208840F40070208003F02AF9FE
S31500002790034622883A49012003F0FBF903F022F9A7
S315000027A001280CBF0124002407F0F2FF28B10246DD
S315000027B03449022003F0EDF900E024B107F03EFEB3
S315000027C0BDE81040F0E610BD58B5204E224A3388C9
S315000027D02D4984B0044600930120234603F0D9F91D
S315000027E03088810504D5912C2BD1FFF7DDFE28E03A
S315000027F010F08F0F11D0902C02D1FFF7F5FE20E0DC
S31500002800912C1ED0029001942048214B194A21494F
S315000028100090022003F0BDF913E0FFF784FF902C2F
S315000028200FD10098C1070CD5420852000092002132
S3150000283001910291ADF80C10684607F036FE08F0DB
S3150000284014FA05B050BD00003C4F030002F9002009
S315000028500CD50020A8D80020E8500300584F0300EC
S31500002860008810020070EF050C4F0300904F030024
S31500002870B84F0300CC4F0300D44F0300EC4F0300C6
S31500002880045003004050030070500300D85003006A
S31500002890C0500300A050030080B5FFF70CFFBDE851
S315000028A0024000F0FE0007F016BE10B5FFF703FF6A
S315000028B040F0010407F046FE08B144F0040407F0B6
S315000028C043FE08B144F008042046BDE8104007F076
S315000028D002BE70471CB5DFF8A04A0A220021204636
S315000028E0FFF74AFD60220021DFF8C40CFFF744FD24
S315000028F0A0206080052120208DF80410009001ABF7
S3150000290010222121F220FFF7C2FA13BDDFF8681A60
S31500002910002000B508704FF0FF3187B00023049106
S315000029208DF818000021039002900191009304AAEB
S3150000293008F005FD07B000BD18B5DFF83C4A207A5F
S31500002940C10787B012D54FF0FF32002104928DF8EF
S31500002950181009F07BF80020002100232072039153
S3150000296002900190009304AA08F0E9FCDFF8441CE9
S315000029700020087008B010BD80B5FFF7C7FFDFF86C
S31500002980381C0020087001BD2DE9F04700F0010851
S31500002990C0F34204894692460609450900F0C3F889
S315000029A006F0010605F0010526D1DFF8CC79387866
S315000029B020B109F092FBF98888421DD1B8F1000FC9
S315000029C018D009F08AFBF880A021012038707980A0
S315000029D07C70E2077D7146BF4FF47A7101FB09F105
S315000029E0DFF8D81BDFF8D00B06F0ACF926B187F874
S315000029F004A001E0FFF78AFF0120BDE8F087002070
S31500002A0070472DE9F34F8FB00746DDF884801546F1
S31500002A10994611210AA805F06DFF780A00F0030A0D
S31500002A20C7F341108DF818000024F80A00F0070BD0
S31500002A30DFF88C0B38400828DFF8880B01680A7924
S31500002A4008BFA046042A08BF01242B001A9D08BF10
S31500002A500AAB05B90AAD1F9E06B90AAE109ACDF8A3
S31500002A60009007F0070107A809F0F0FB002856D0F0
S31500002A70DFF8541B012003F092F800F054F84ED111
S31500002A80BAF1010F4BD09DF82400C0B1022846D1FF
S31500002A900022082107A802F0F3FF00283FD107F023
S31500002AA0180018283BD0ABF10500022837D39DF853
S31500002AB0180068B9F8060BD48CBB85202DE0079862
S31500002AC068B310F1070FEAD310F1010F27D1E6E73B
S31500002AD01E98BDF880101B9B9DF81820049001914C
S31500002AE0CDF814800396029507A9BDF870000090F2
S31500002AF0384609F030FF38B1DFF87C08417888079E
S31500002B000DD5FFF703FF0AE0380708D509F041FCA9
S31500002B10FF2808BF002C02D18920FDF7E5FE012021
S31500002B2011B0BDE8F08FDFF89C0A01680A68507999
S31500002B30F22870472DE9F0438FB081468846169CEF
S31500002B4017461E4611210AA805F0D4FE04B90AACA0
S31500002B50FFF7E9FF4ED1189D179A3146199EF02DC1
S31500002B6049D0F32D61D1002200298DF82420079247
S31500002B703CD10AF021F980453AD1DFF8385ADFF81E
S31500002B80F847287810B1207A810764D505F06AFCE9
S31500002B900B3840F0100004AA01238DF81000002124
S31500002BA00192009303910291F32307AA012008F0F2
S31500002BB0C6FB0120207205F055FC07F10B01884287
S31500002BC00BD001200B3700FA07F10022032008F092
S31500002BD084FE207A00F0FD0002E0207A40F0020038
S31500002BE0207241F28831284606F0ACF8012033E025
S31500002BF0FFF7A2FE2FE019F007008DF8180008BFB6
S31500002C00049101D000F02BF80AF0D6F8804503D1E4
S31500002C1000F02FF8F0231AE0002000210023039093
S31500002C2002910190009304AA13E0F72D03DAA5F1AF
S31500002C30B003102B0FD219F003008DF8180008BF4F
S31500002C40049101D000F00BF800F013F82B4604AA0B
S31500002C50012008F074FB00200FB0BDE8F0830221CC
S31500002C608DF818108DF819202146082204A8FFF7C0
S31500002C703CBB00200021721C039002910192337824
S31500002C8000937047002070472DE9F04704468846B8
S31500002C90626892B200214046FDF7B4FE207C08F13E
S31500002CA0020520B9A26800F0A2F82D1D07E002284F
S31500002CB005D1082204F1080100F09FF80835207CB0
S31500002CC0022804BF607C05F8010B6168880403D5FF
S31500002CD0A28A00F097F8AD1C606841040ED5A07D6D
S31500002CE005F8010B0021A26900F082F82D1D1022C3
S31500002CF004F11C0100F081F8103505E0800603D5CB
S31500002D00A26900F074F82D1D207941064FF00C0AD7
S31500002D100ED500F05EF800F061F805D100F06BF812
S31500002D2000F06EF800F04EF87F1CF9B20229F2DBD3
S31500002D306068C10517D500F04CF8FAB204F12C0111
S31500002D401AFB02F28E183378022B08D1728800F033
S31500002D5059F8AD1CB28800F055F800F033F87F1C26
S31500002D60F9B20229E9DB04F14400017805F8011BF8
S31500002D70227902F01802182A1CBF407805F8010BC8
S31500002D806268100403D5120C00F03CF8AD1C6068B4
S31500002D90C10312D500F01DF800F020F809D100F0AB
S31500002DA02AF800F02DF899F800000A30AD1C89F8D1
S31500002DB000007F1CF9B20229EEDBA5EB080188B200
S31500002DC0BDE8F08799F80000401CAD1C89F80000AA
S31500002DD070470027A94605F8017B7047FAB204F14F
S31500002DE02C011AFB02F28E183378032B7047002150
S31500002DF02846FDF70CBE0822B11C2846FFF775BA17
S31500002E000835728900212846FDF7FCBD2DE9F84FEB
S31500002E10B6B00E4600F00701C0F3C1008DF80410ED
S31500002E20009090469B46112107A805F063FDDFF848
S31500002E309417096800250024B8F1000F087908BF27
S31500002E400DF11C0800284DD109684879F2283CD1BB
S31500002E500FA9E0B209F029FA002836D19DF83C0006
S31500002E60FF2818BF6D1C641CE0B20428F0DD9DF835
S31500002E700001DFF81849DFF81899DFF818A906905D
S31500002E80EFB2009860BB9DF80410CDF800B0324652
S31500002E9043460CA809F0DAF9002800F07F800CA858
S31500002EA009F059FAFF28054622D000200122FF2307
S31500002EB005900490039202930197009000F074F835
S31500002EC00FA9284609F0F1F900286BD1208809EBF3
S31500002ED000010FA8FFF7D8FE2188401820805BE08C
S31500002EE0009801285AD19DF80001EDB2A84209D3F5
S31500002EF000210591049103918B2206990291019775
S31500002F00009247E000200590002106980491FF22D8
S31500002F10039202900197009100F046F800269DF872
S31500002F2000810027B3460FA95FFA8BF009F0BDF9BF
S31500002F30002837D19DF83C00FF2815D0761CF2B248
S31500002F40904511D221A90FA8FFF79EFE05462088BD
S31500002F50411952290ED22A4621A94844FFF7C5F93C
S31500002F6020882D1825807F1C0BF1010B5FFA8BF151
S31500002F700429D8DD89F80670FDF7B2FC74280DD156
S31500002F80002005900390002106980491F6B2029065
S31500002F900196009100F008F8FDF7A2FC012037B079
S31500002FA0BDE8F08F0020FAE753460B2221210120CD
S31500002FB0FEF74FB82DE9F04F0024F22808BF21296B
S31500002FC0A7B04FF0000B4DD1112A02BF802B3098CD
S31500002FD0002847D1DDF8C4A0BAF1050F42DD112063
S31500002FE0FDF7E2FEDFF8A477DFF8A4973D882D1DF4
S31500002FF0ADB2A84600266946F0B209F056F9C0B946
S315000030009DF80000FF280FD012A96846FFF73CFE86
S315000030100446281982450EDB224612A909EB050053
S31500003020FFF763F96519ADB2761CF0B20528E2DB4D
S3150000303003E0002017E04FF0890B5FEA0B00A5EBD9
S31500003040080509D10020FDF7A0FE4320FDF79DFEEF
S31500003050A8B2FDF7A9FE01E0FDF797FE38882D1806
S315000030603D800124204627B0BDE8F08F2DE9F04FC2
S31500003070C14D287889B068B11C46237A002B04BF5D
S315000030802068002806D0179EE02E18BFE22E01D039
S31500003090159818B1012009B0BDE8F08FDDF84C8015
S315000030A0129F91468A469B4609F086FE0690CDF809
S315000030B01CA018991B980891059003969DF8681016
S315000030C01698049102900197CDF800904BEA0710EC
S315000030D0637A216840EA8816224646F4006009F0C1
S315000030E05CF8FEF724F80646F22030717071052070
S315000030F009F08CFF687920B1E9880020FDF7EDFF23
S315000031000BE0F08840F00200F080A9F10C05B572E2
S3150000311020460BF001FC00F089F800F033F9B9E71E
S315000031202DE9F84F1C468AB00546207A002804BFD0
S315000031302368002B79D030B9236813F1070F02D327
S3150000314013F1010F71D102280AD10023D8B2205CF5
S3150000315018B95B1CDEB2082EF8DBDBB2082B64D094
S315000031601698002861D1179E237A300018BF43F0C5
S3150000317008037E2D159818BF7F2D05D143F40073E3
S3150000318020B143F4807301E043EA8013149DDFF815
S31500003190E891DDF868A0DDF87080DDF874B099F884
S315000031A005008DF824202F0147F400673B43ADF856
S315000031B026300F4698B109F0FFFD00F03DF8002ECD
S315000031C014BF2020052009F021FFFDF7B0FF00F015
S315000031D0D5F80020B9F80610FDF77FFF23E009F0C7
S315000031E0EBFD00F029F8FDF7A2FF00F0C7F89DF807
S315000031F02410A1F10C05C188857241F00201C1803D
S315000032004EB17F0907F00607C7F103077F073F0E98
S315000032102037B8B200E0052009F0F8FE20460BF092
S315000032207BFB00F003F800F0ADF8A1E00146EAB23E
S315000032304FF6FD70FDF765BF0690CDF820A0079705
S31500003240CDF814B0CDF81080019522469DF86400A3
S315000032501899039002919DF824000090637A2168E2
S31500003260BDF8260008F099BF38B500E038B58AB039
S31500003270179C9DF85850099408959DF85440149D44
S31500003280079406959DF84C40129D059404959DF86B
S3150000329044409DF84050039402959DF83C409DF8AB
S315000032A0385001940095FFF73BFF0BB030BD2DE978
S315000032B0F84F314E8AB03478002C1EBF347A04F0B1
S315000032C00304012C54D008257E281598149CDDF89B
S315000032D060B0DDF86480DDF868A0DDF874908DF8E4
S315000032E0242008BF4FF40275800140EA041040F420
S315000032F000602843ADF826000F461C9D707978B112
S3150000330009F05AFD00F041F8FDF711FF00F036F81C
S31500003310202009F07BFEF1880020FDF7DEFE25E087
S315000033201E4609F049FD00F030F8FDF700FF00F0F9
S3150000333025F87F0907F006079DF82410C7F1030753
S315000033407F07A1F10C04C18841F002013F0E84728F
S31500003350C1802037B8B209F059FE30460BF0DCFACE
S315000033600146E2B24FF6FD70FDF7CBFE00F00AF81B
S3150000337001200BB0BDE8F08F6CE90020F22101714D
S3150000338041717047002009F041BE0690CDF820A09B
S315000033900797CDF814900495CDF80C80CDF808B0B9
S315000033A0019400239DF8240000900022BDF8260019
S315000033B0002108F0F2BE2DE9F84F98B09146299801
S315000033C00246FF2A0E46984600F0ED804821DFF8B7
S315000033D0C8334A4319680C1D0D1DA35843F40073E6
S315000033E0AB5006A943F48063A35008F05EFF0028A3
S315000033F040F0D98098F8087000210C2406A804FB38
S3150000340001F2104490F82C00002814BF032847F05E
S31500003410080703D0022808BF47F02007491C0129E6
S31500003420ECDD9DF81C00279DDDF894A0010622998D
S31500003430239848BF47F0100747EA811747EA002755
S31500003440E02D47F4A04718BFE12DBFB203D1DFF846
S315000034504C23107820B15FEA0A0018BF47F40067D2
S31500003460DDF898B001B9CB4609F0A6FC05960490A4
S3150000347076092B989DF8A810039002910195CDF836
S3150000348000B006F0060698F80930D8F80010C6F124
S31500003490030642463846760708F042FE360E2036C8
S315000034A0ADF800604FF6FC75002606A804FB06F191
S315000034B000EB010B0BF12C073878002818BF032806
S315000034C019D1FDF734FEFFF759FF5FEA0A0014BF72
S315000034D02020052009F09AFD7889A84206DB0BF129
S315000034E02E0009F0F5FBA842B8BF78817989002043
S315000034F0FDF7F3FD26E0022826D1FDF718FEFFF7BB
S315000035003DFFA9F10901C288817242F00202C28020
S315000035109DF85C10C1725FEA0A0014BFBDF8000096
S31500003520052009F073FDB8884FF6FF71884204BF85
S3150000353040460BF0F1F90146A9F109027888D2B2AA
S31500003540FDF7B0FDFFF71EFF761C012EADDD9DF8E1
S315000035501C00010627D5FDF7EAFDFFF70FFF80F8EF
S315000035600A90BAF1000FC18841F00201C1809DF8AE
S315000035705C10C17214BFBDF80000052009F046FDBD
S315000035800798810448BFBDF82C4003D440460BF091
S31500003590C3F9044640460BF0BFF94A462146FDF7FB
S315000035A081FDFFF7EFFE012019B0BDE8F08F0000A6
S315000035B078E90020E0E90020D8E900200071020047
S315000035C00800020030D90020608103000120704706
S315000035D02DE9F84F064671480C46017AC8079EB099
S315000035E0154603D59DF8B410E3296CD19DF8A000CB
S315000035F00B93002802BF69490878002810D11846A5
S3150000360008F0A9FEFF280BD00CA908F04EFE0028F2
S3150000361059D10D98410456D49DF84600002852D140
S31500003620002E18BF7C2E8DF8286005D07F2E4AD13B
S315000036305A49087800287BD058498DF82A408DF8D9
S3150000364029500878299C2A9D2B9EDDF8B090DDF83C
S31500003650B8A02F9FDDF8C080DDF8C4B000285FD089
S31500003660280003D000F070F8FFF700FD9DF8280051
S315000036707F2804BF9DF8A000032807D19DF8B40059
S3150000368000F059F800F074F803213FE09DF8B4000B
S31500003690E0282ED022D3E22816D002D3E32818D071
S315000036A01CE09DF8A0100B9B9DF829200091E120BD
S315000036B00590CDF824B09DF82A109DF8280000F05A
S315000036C052F8FFF7D1FD33E000F040F8FFF7CEFDEA
S315000036D02EE000F03BF8FFF7EAFD29E09DF8281000
S315000036E07C2909D1A0F1E4020C2A24BFB0381028A5
S315000036F01AD200F029F810E07F2915D19DF8B40000
S315000037009DF8A01000F017F800F032F800910B9B1E
S315000037109DF829209DF82A107E20FFF701FD07E07D
S315000037209DF8B400E22803D000F00EF8FFF743FE40
S315000037301FB0BDE8F08FCDF824B0CDF820800797F4
S31500003740CDF818A0059070479DF8B4009DF8A0101C
S31500003750059000910B9B9DF829209DF82A109DF855
S315000037602800CDF824B0CDF820800797CDF818A012
S31500003770CDF81090039602950194704728B9074832
S31500003780017AC80748BFFFF7D7B8704774FF002013
S3150000379054D800206C810300E4CF00206CE900209F
S315000037A0912800D0704780B500F01FFE18B9BDE81B
S315000037B001400BF0DBB901BD1CB5059C1CB1049C96
S315000037C0009403F0F8FD13BD30B50246DFF88C090E
S315000037D0DFF88C59002303E0D45C604068435B1C2F
S315000037E08B42F9DB30BD0246084614232E2105F034
S315000037F0BAB90A46014614232E2005F0E7B99028E7
S3150000380000D0704780B50BF0D7F9BDE80140A3E3BF
S3150000381030B585B00024DFF84C596946E0B2FFF7B1
S31500003820E2FF9DF8010038B19DF8000020B918208C
S315000038306043284401210174641C0E2CEDDB00F06A
S315000038408BFB05B030BD2DE9F04F00249FB0A0469C
S31500003850A346A146002505A900F0C2FB0BF01AFA03
S315000038601822DFF800196A438E183368C31A9DF8C8
S31500003870150000280FD09DF81410002929D1BDF895
S3150000388020104FF47A7251438B4208D3317C41B9F0
S31500003890BDF82210002900F0B38051438B42C0F0DE
S315000038A0AF8004A903914123BDF81C1002930EAA10
S315000038B0019200919DF81A30BDF81820BDF8161037
S315000038C0FEF7F2FC002804D19DF81000FDF7ABFCD2
S315000038D0002840F095809DF810000EA905F0F0F93B
S315000038E082460AF10302DCB120799DF81530618821
S315000038F0834204BFBDF816308B420FD19DF81A30B3
S31500003900DB095B4504BFBDF81C30434506D1DFF833
S3150000391058381F88D2B2D21991453FDA00F07EF8A6
S31500003920FDF705FC04469DF81A00BDF81C20CBA146
S3150000393000915FEAD01B14BF00200820BDF81610C6
S315000039400A23FDF76AFB9DF8150020714FF48A5192
S31500003950E1804FF0FF09BDF81C8000270AA9F8B2E4
S3150000396004F018FB002802BF9DF829009DF81510E9
S31500003970884202BFBDF82A00BDF81610884209D158
S315000039809DF835109DF828002246FDF711F84845A8
S3150000399098BF81467F1CF8B20228DFDDBDF818000B
S315000039A0FDF702FA9DF81000FDF7EFF951460EA853
S315000039B0FDF72AFA002030740BF06CF930600EAB7C
S315000039C00020009052469DF81000412818BF42285A
S315000039D00AD1AAF10101C9B20DF13900FFF7F4FECF
S315000039E000906B46042202E0D0B2092808D20020DB
S315000039F0C6E90200D2B2194606F10800FEF775FCC8
S31500003A006D1C0E2DFFF627AF1CB16188207900F0E2
S31500003A1005F800F0A1FA1FB0BDE8F08F10B50C460E
S31500003A20FCF78EFC08B9032C0BD1DFF84007FDF735
S31500003A3022FBB42808BFFDF72CFBBDE81040FDF7BC
S31500003A4033BB10BD2DE9F04F044687B0267D00211B
S31500003A508DF8061081A1607D009100282568228AD4
S31500003A60698807BF08204FF0400900204FF0800901
S31500003A700723FDF7D2FAA289B1B2C81C904280F2A0
S31500003A80E180A068415C8DF80510761CB1B2FDF7A7
S31500003A90E9F982469DF80500B61C10B101284FD001
S31500003AA0BEE0A068B1B2761C425C8DF80420B1B2CB
S31500003AB0A289FDF7D7F90546B61C00F0D1F8804675
S31500003AC09DF80400FDF737F80027B61C60B99DF88D
S31500003AD0040005F0E3F88346A289A0685B46B1B20C
S31500003AE0FDF7A9F907465E442068218A00914B46F6
S31500003AF0418840795246FDF763FC00281FBF807855
S31500003B009DF8041088428D2519D1206841798DF8D9
S31500003B10091020684188ADF80A10ADF80CA08DF8A0
S31500003B200E9002A8218AADF81010ADF81450ADF829
S31500003B301680069700F06FFA054628009BD070E0C5
S31500003B4000F08EF80546B61C4FF0FF0801274FF02F
S31500003B50000B02A95FFA8BF0FFF745FE9DF80810EF
S31500003B609DF80900012902BF21684A7990421BD1BC
S31500003B70BDF80A204B889A4204BFBDF80C20524576
S31500003B8012D19DF80E204A4502BFBDF81020238AA7
S31500003B909A4209D1BDF81420E3889A4202BF9DF8E3
S31500003BA0162009798A4211D0002802BF5FFA88F0F0
S31500003BB0FF28D8460BF1010B5FFA8BF00E28C8DB05
S31500003BC05FFA88F1FF2904D189252AE00027D84623
S31500003BD0F6E7C7B101208DF80800216848798DF80D
S31500003BE0090021684888ADF80A00ADF80CA08DF8E8
S31500003BF00E90208AADF81000E088ADF81400216818
S31500003C000A798DF81620ADF8185002A8FDF766F867
S31500003C10050092D102A95FFA88F0FFF7EAFD8CE76A
S31500003C2085252846FDF7B1F89DF80500FDF7ADF8A6
S31500003C305046FDF7B9F80120852D8DF806007FF472
S31500003C401AAF04E09DF8060008B9FDF79EF8FCF7E8
S31500003C5047FE012007B0BDE8F08F0000000000001D
S31500003C60A289A068B1B2FDF7FDB82DE9F047064676
S31500003C7086B0357D707D90A10028009107BF082091
S31500003C804FF0400A00204FF0800A3468328A61887B
S31500003C900923FDF7C2F908E08620FDF776F82046ED
S31500003CA0FDF773F84846FDF77FF8B289A9B2CB1C39
S31500003CB09A42C0F28080B068445C6D1CA9B2FDF7E0
S31500003CC0D1F8AD1C012C814670D83068318A00913C
S31500003CD05346418840794A46FDF772FB5FEA000881
S31500003CE0DAD0002701A9F8B2FFF77DFD9DF80400A0
S31500003CF0A04201BF31689DF805004A7990421ED165
S31500003D00BDF806004A88904204BFBDF80800484541
S31500003D1015D19DF80A00504502BFBDF80C00328A45
S31500003D2090420CD19DF8040078B1BDF81000F288DD
S31500003D30904202BF9DF812000979884205D07F1C87
S31500003D40F8B20E28CEDB8B20A7E70020FDF71DF882
S31500003D502046FDF71AF84846FDF726F814B1012C5F
S31500003D6026D0A2E798F80200FDF70FF8BDF810007C
S31500003D70FDF71AF8BDF81200FDF716F898F80200DC
S31500003D80FCF7D9FE002890D198F8020004F086FFCF
S31500003D90DDF814900446E0B2002886D05FFA89F078
S31500003DA0FCF7F3FF4FEA1929641EF4E7852074E750
S31500003DB0BDF8140077E7FCF793FD01200CE110B580
S31500003DC00024E0B200F00FF9641CE0B20E28F8DB24
S31500003DD0DFF89C0300210170002010BD80B5B121E1
S31500003DE00E2802DA00F011F90021084602BD2DE97D
S31500003DF0F04387B006460E9C0F469046994600252E
S31500003E0002A900F0EDF89DF80800002804BF9DF80F
S31500003E100900B0420FD1BDF80A00B84204BFBDF890
S31500003E200C00404507D19DF80E00484504BFBDF87B
S31500003E301000A04206D06D1CEAB20E2AE0DB07B0E5
S31500003E40BDE8F08300202C460F9F109D0190384658
S31500003E5004F024FF412F014618BF422F284608D1FF
S31500003E60FDF722F80146681CFFF7AEFC019004211D
S31500003E7001A8E4B21825BB4E00916C432644D6E94E
S31500003E800223FCF77BFA04460D463846FCF753FE40
S31500003E90012804D1002D08BF002C08D1CFE7002847
S31500003EA0CDD1002106988D4201D88442C7D3012284
S31500003EB0327400F051F8C2E70000000010B54278F5
S31500003EC04B789A4202BF42884B889A421AD182881E
S31500003ED08B889A4202BF82798B799A4212D10289E3
S31500003EE00B899A4202BF02780C78A2420AD13AB1F3
S31500003EF082898B899A4202BF807B897B884201D165
S31500003F00012010BD002010BD78B585B004460026FE
S31500003F106946F0B2FFF767FC21466846FFF7CEFF19
S31500003F2098B9761CF0B20E28F2DB002625466946C3
S31500003F30F0B2FFF758FC9DF8010038B1761CF1B2DB
S31500003F400E29F4DBFF2006B070BD25462946F0B2E7
S31500003F50FFF74FFCF0B2F6E72DE9F8474FF0FF39CF
S31500003F6085B0C8460025DFF8FCA14FF47A7700F04B
S31500003F7036F89DF8010008B39DF80000F0B9BDF8C9
S31500003F800C60BDF80E400AF085FEEBB218214B43DB
S31500003F907E435AF803105344411A187C7C434A4620
S31500003FA018B18E4204D3721A05E024B18C4201D2B4
S31500003FB0002200E0621A424598BF90466D1CE8B2A6
S31500003FC00E28D4DB18F1010F694803D04146FEF7ED
S31500003FD07AFA01E00021017006B0BDE8F087694673
S31500003FE0E8B2FFF700BC18B585B004466946FFF78E
S31500003FF0FAFB00228DF8012069462046FFF7F9FBFF
S315000040006846FCF76BFE06B010BD80B5FFF7EBFF08
S31500004010BDE80140A0E72DE9F041074686B03889A2
S315000040200090BB79BA8879887878FDF7C9F9FF25B9
S31500004030012608B986208EE0F88920B1B989884220
S3150000404038BF8720F7D3002401A9E0B2FFF7CBFBE6
S315000040509DF804109DF80500002904BF7978884270
S3150000406013D1BDF806107A88914202BFBDF8081038
S31500004070BA88914209D19DF80A10BA79914202BFD5
S31500004080BDF80C103A89914209D0002802BFE8B267
S31500004090FF282546641CE0B20E28D5DB01E0002689
S315000040A02546F8894FF6FF71884205D116B9E8B260
S315000040B0FFF7ABFF00204EE00024002804BFB889BC
S315000040C088420AD11422394601A8FEF70EF901A842
S315000040D00AF07EFD08B101260124E8B2FF2808BFD8
S315000040E0892038D016B300208DF80400EEB2797816
S315000040F08DF805100E2E7888ADF80600B888ADF854
S315000041000800B8798DF80A003889ADF80C000DDA88
S3150000411018204643DFF84C800AF0BCFD48F806003C
S3150000412008F1080232440020C2E900003CB9B8890F
S31500004130ADF81000F889ADF812003869059001A8AD
S31500004140FCF7CCFD040005D101A9E8B2FFF751FB4D
S31500004150FFF702FF204606B0BDE8F081C59D1C8131
S315000041609301000110D3002074FF0020B93700002E
S31500004170E0DB002030B585B004460025FFF72FFFB1
S3150000418021466846FFF79AFE40B96D1CE8B20E2834
S31500004190F4DB2046FFF7B8FE05B030BD0020FBE794
S315000041A080B5A0B080787D22694604F072FA0100DD
S315000041B01CBF694602F001FD21B000BD38B50A46B4
S315000041C0014610460AF0C8FEFF28044601D1182011
S315000041D032BD012201210BF0E9FD054620460AF019
S315000041E038FE284632BD80B502F0CCFCBDE8024060
S315000041F0012010B5040014BF084800200BF0A8FEEB
S3150000420050B1002CBDE8104014BF054A054A0346CC
S315000042100549022001F0BDBC10BD0000B87E0300B8
S31500004220A07E0300AC7E0300747E030080B552229C
S3150000423000214F48FEF7A0F8BDE808408FE0FEB524
S31500004240054601F065FB0646284601F071FB9DF820
S3150000425000102A464FF6FF741EB3019B1B78212AD5
S315000042601FDA4220012B434E09DC4343F01830F895
S315000042701230A34215D05B1C20F8123011E0022B3D
S315000042800FD1002306EB420700FB03F637F806E0E2
S31500004290A6451CBF0EF1010E27F806E05B1C012B9C
S315000042A0F2DD354F324E37F8123036F812C09C45E3
S315000042B08041C043C00FA4451CBF0CF1010C26F879
S315000042C012C0092D18BF0B2D0AD1B6F814C0BF8A2B
S315000042D001EB0C0EBE45AEBFB7826144B1820CE065
S315000042E01D2D0AD1B6F83AC07F8F01EB0C0EBE45E4
S315000042F0BDBF491E61447187778736F8121099420F
S3150000430003D310B92846FCF7D0FC00201B49C6B2DF
S315000043108A5DAA4204D0401CC6B2112EF7DBF7BD57
S31500004320112E15DA02F0CBF90546154801788D42B3
S3150000433003DBDD2113480BF075FF222012494543AC
S31500004340481930F81610A1421CBF491C20F8161057
S31500004350F7BD522200210648FEF70EB800BF5222D2
S31500004360FF210548FEF708B8034A22F810107047E7
S3150000437038F5002004F600208CF500202094030078
S31500004380CED2002010940300E0F50020DFF8781B61
S31500004390C873704710B5DFF8744B2068427B112A4A
S315000043A004D0B021DFF8680B0BF03CFF20684121F8
S315000043B0417310BD80B5022002F087F902F08EF934
S315000043C0DFF8481BDFF8400B0A68137B042B03D188
S315000043D0017C491D017404E04FF47A71183004F031
S315000043E0B1FCBDE8014002F07AB9DFF8200B0168A4
S315000043F0487B33281CBF4328532801D1012070472E
S31500004400002070472DE9FF410CF018F808F0DEFD9A
S31500004410002851D0DFF8F04A00202076DFF8F40AB1
S3150000442001790C3001F0C6F8607D18B10CF09AF9EC
S315000044300020607500212173002500F03FF80DF083
S315000044406AF90CF04DF8DFF8D08ADFF8C06ADFF8B9
S31500004450307C3978E8B288422ED202F03FF93068D3
S3150000446041884FF6FF72914218BF012007D1002202
S315000044700821001D01F004FB401E8041C00F94F886
S31500004480281001F00101014212D030684188ADF8D0
S3150000449008100822011D6846FDF727FF0A230A2295
S315000044A001F0CEF802230B22414600200DF030FB2E
S315000044B002F015F96D1CCCE7BDE8FF8110B5DFF8F9
S315000044C04C0A0068017B032918BF042906D14188DC
S315000044D04FF6FF72914208BF032008D001F037FA69
S315000044E0044601F038FA214603F0DDFC022001F013
S315000044F03AFA0DF0BDFB00F029FFBDE810400DF0C3
S3150000450035B938B5DFF8004ADFF8005AE073296894
S31500004510487B032818BF00281ED0332818BF43281D
S3150000452014D101F00BF92868017B032918BF04296F
S3150000453006D103214173E07BBDE8324002F035B974
S31500004540E07B02F032F9BDE83140B7E7212048733D
S31500004550BDE8314006F078B931BD10B5DFF8AC19C9
S31500004560DFF8A4490A68002050734FF6FE7008F081
S3150000457027FC4FF6FF7008F02BFC01F0DFF8E07B1C
S31500004580BDE8104002F011B97FB504461522E07A65
S31500004590DFF878590290032094F90A1001912389D3
S315000045A02FA1009323460DF0E2FC2968487B70B9E1
S315000045B0208901F03DF90AD0DFF8C82A10780B28C7
S315000045C005D102F08DF810B902F08CF810B1702008
S315000045D004B070BD2868017D880708D508F0ECFB9B
S315000045E04FF6FE72904203D10DF0F9FC00E0002078
S315000045F0214600F08DFF06000DD12868017D880751
S315000046004CBF0220012000F058FF002101200DF0D0
S3150000461029FF060001D03046DAE7DFF86C1A087881
S3150000462008B10FF086F800220821204601F028FA8A
S3150000463030B1042120460FF0EBF808B1A520C7E7FA
S31500004640DFF8480ADFF8802C017821740020E08129
S315000046506261204600F094F9064601F0FCFFDAE7B5
S31500004660423870574242000070B50646334618225B
S3150000467001F066F8DFF89008DFF89028002180F84E
S31500004680201070251368197B032918BF042911D03F
S315000046900025310008BF05750CD0FF2E02D101217F
S315000046A0017507E00122B4000275641C2102203066
S315000046B004F048FB00F04AFE284670BDDFF84818B3
S315000046C0002081F82000CFE738B50D4688B00446B3
S315000046D0686907901622297C0691E8890590297B4E
S315000046E00491E87A0390032095F90A1002912B8928
S315000046F00BA10193009523460DF039FC01200CF027
S3150000470083F8287B00280CBF4FF6FE7008F054FB98
S315000047102B46224609B0BDE830400146012097E00D
S315000047204242387057424242574244002DE9F04116
S31500004730DFF8D8570E4629688046487B002814467D
S315000047401F464BD1200049D0042C47DCDFF8340942
S3150000475001780B2942D101F0C3FF00283ED101F0B8
S31500004760C1FF08B1042C39DB387B032816D14FF67C
S31500004770FE718E4214D1012C08BF002610D0022CE7
S315000047802CD108F019FB4FF6FC71884202DA08F0CA
S3150000479013FB01E00DF023FC064601E0012C1DD0C1
S315000047A0B8F1000F0CD0387B03280CBF0121002183
S315000047B02046012C18BF00200DF054FE01002BD11D
S315000047C03946304600F0A4FE010025D101F082FFF3
S315000047D001F067FF20B101F085FF08B170201BE0F2
S315000047E02868407B332818BF532803D0DFF81817F2
S315000047F000208873204600F060FE00214FF6FF700F
S3150000480000F0F9FFDFF88018087820B101F06AFFA0
S3150000481008B90EF08EFF0020BDE8F08138B50446D9
S31500004820DFF8E45608222146281DFDF75EFD207BB1
S315000048300328A8BF00209421E9732870DFF8CC165E
S3150000484028780A6800280CBF01203120507331BD3A
S3150000485010B51C46FFF76AFF01002BD1207B032809
S31500004860204602D1BDE810408AE0FFF7D7FFDFF807
S315000048709806DFF89846002181814FF001032068F1
S31500004880817B480905D1DFF8840C027803FA01F12F
S3150000489008E001F01F0140F0180003FA01F10522BB
S315000048A041EAC061052007F018F8010002D022682D
S315000048B00021517310BDF8B586B006460C46174662
S315000048C01D46082204F10C016846FDF70EFD2189FC
S315000048D0ADF808108DF80A70002221788DF80B10BB
S315000048E08DF80C206B4632464FF6FE710120FFF71D
S315000048F01DFF01000AD16846FFF790FF204600F031
S3150000490007F8010004BFDFF800164D7507B0F0BDCB
S3150000491038B5DFF8F85504462868007B032818BF29
S31500004920042806D1E079C10744BF94F905000EF0CA
S3150000493085FF28682178817301F08DFE2968DFF8EC
S31500004940280C0A7B825C218960890FF052FA0400E8
S3150000495004D09420FFF7D5FD204632BDDFF8A845E8
S315000049609420E073022001F0AFFE00F004F803206B
S315000049702074002032BDC82104F1180004F0E2B909
S3150000498010B504460022082101F07AF808B101208A
S3150000499010BD08F011FA00224FF6FF7100F0E6FD97
S315000049A0217C204600F006FE6269E189207C0DF03C
S315000049B08FF9DFF8580501680A7B012A08BF0EF057
S315000049C0EBFAFFF77BFD002010BD7CB5DFF83C5508
S315000049D029680446487B002802BFDFF8A816087835
S315000049E00B2801D0702076BD0BF017FFDFF8186595
S315000049F02CB10222214606F12800FDF776FC684616
S31500004A0000F0D1FE08B1932076BD9DF80030142247
S31500004A1000F096FE00F018FE010061D19DF800003E
S31500004A2000F04BFD2868007B012818BF022807D03C
S31500004A30032818BF042838D1002000F0FDFEA0B3DB
S31500004A4000F019FE2868007B032814BF04280FF025
S31500004A509EFAFFF733FD01200FF0BAFA01003FD1AD
S31500004A602868007B032818BF04280ED196F8281062
S31500004A708A0708D50522DFF85018012000F044F80F
S31500004A8001002CD076BD032801D0042827D1DFF8F9
S31500004A90884402230B22214601200DF039F82078A4
S31500004AA041071CD50BF014FE19E029681320487342
S31500004AB0002272734FF001022868817B480908BF03
S31500004AC002FA01F107D001F01F0140F0180002FAC6
S31500004AD001F141EAC0610522072006F0FEFE002032
S31500004AE076BD0FE038B504461046032818BF0428E3
S31500004AF00D4601D0022032BD00F0DFFC29462046DB
S31500004B00BDE83840FF2200BF2DE9FC418046DFF8B2
S31500004B10FC0300680D46017B0129164640D0477B01
S31500004B20022F07D0032F3BD15FEA080102D1007D97
S31500004B30810735D4332000F016FF0BF07FFC15F00B
S31500004B40784F12BF0522DFF8C409027829460520EE
S31500004B5006F0C3FE0446A8B9DFF8AC73387301202B
S31500004B600BF052FE08F030F978805FEA080014BFB7
S31500004B70022001203870381D00F02CFE00207873CA
S31500004B80BE7302E0384600F0EEFE5FEA08003146EA
S31500004B90284602D00FF03FFA03E00FF03BFA00E0A0
S31500004BA070240194009543465FF02C0203A1032074
S31500004BB00DF0DDF92046BDE8F68100004242444290
S31500004BC00000000038B504460AF0CEF80546204637
S31500004BD00FF065FA2C1820460FF07EFB4FF6FF51BA
S31500004BE001402046BDE834400FF07DBBFEB50546CA
S31500004BF008F0E2F8C54C06462068007B032818BF7B
S31500004C00042806D1E879C10744BF95F905000EF0DE
S31500004C1015FE21682878887301F01DFD688900213A
S31500004C2000F0E9FD00F03EFF60B1300003D04FF622
S31500004C30F8718E4206DB0DF0D2F921684A8890425F
S31500004C400646F8D0304608F0BBF8288908F0C0F8C8
S31500004C5006208DF80800DFF810192068027B8B5CAF
S31500004C608DF809300021019100910223408802AAA3
S31500004C7001210FF086FCFF28064604D11820FFF715
S31500004C8040FC1820FEBD20689F4D418830460FF03D
S31500004C9047FA287802281CBF3046FFF793FF00F03A
S31500004CA063F8074630460AF0D4F8CFB19420E8738B
S31500004CB0022001F009FD2068017B042908D1C821E2
S31500004CC005F1180004F03EF8032028740020FEBD0C
S31500004CD04FF4167105F1180004F034F80020F4E7DB
S31500004CE09420FFF70EFC0120FEBD78B587B00C4678
S31500004CF016461D4630B920460FF032FE03A90EF0C7
S31500004D0024FC03A8019007230C998DF80960012063
S31500004D108DF808308DF80B100090360A8DF80A6071
S31500004D20042302AA012120460FF02BFCFF28064689
S31500004D3018D021460FF0F4F915B93046FFF742FFB7
S31500004D400D9808B930460DE020460EF039FC18B132
S31500004D5030460FF033FE01E000F006F830460AF068
S31500004D6078F8FF2008B070BD00220021304610F010
S31500004D7067B92DE9F34F824685B014469DF81800B1
S31500004D801D4603A90FF038FC0027002C14BF4FF076
S31500004D90010BBB460026BBF1000F4FF6FF79B84664
S31500004DA007D008B10DF10C086678760806F0010602
S31500004DB004E09DF818000FF01CFA804600F0F7FB9F
S31500004DC0087B032818BF042800F09B806D1C9DF803
S31500004DD01800E9B20AF0DEF90546400800F00100C5
S31500004DE08DF809008DF808A0280600F0E0FB4A7B44
S31500004DF058BF45F08005022A04D1434A107D50EA87
S31500004E000A0101D1022729E0404607F061FFADF80B
S31500004E10000003219DF818000FF03BF9814608B900
S31500004E204FF0010930000CBF4FF0050A4FF0010AA0
S31500004E30BBF1000F03D0201D0FF04EFA01E0BDF8C4
S31500004E4000000146CDF8009053462A4640460EF033
S31500004E5097FA00F0EDFC814608BF0127DCB19DF80A
S31500004E60080018B9484600F0E3FC02D1201D0FF0F7
S31500004E7033FA012101910097014633464A464046DE
S31500004E80FFF733FF9DF8090050B94FF6FF71404612
S31500004E9010F0B3FB04E03A46494640460EF082FF66
S31500004EA07FBB9DF8090028B14146484610F0C9FB72
S31500004EB010F016FC30001EBF48464FF6FF718842C0
S31500004EC00DD00FF04DFDFF2809D0DFF8E8190A686C
S31500004ED032F810304BF6FF710B4022F8103084B1D7
S31500004EE007F06AFF0EB1002405E09DF808100029BE
S31500004EF014BF03240124014643464A46204610F0C7
S31500004F0095FD07B0BDE8F08FE8F70020D0F8002047
S31500004F10F458000020F8002052FA00202DE9FF473F
S31500004F2005460C46904602A920460FF065FB8146D1
S31500004F3001AA0020106020460FF0BBF829000646A3
S31500004F40DFF8747908D0B9F1000F18BF0DF1080920
S31500004F500FF047FB824604E020460FF04AF98146EF
S31500004F60BA460020009004234246214601A80AF0D2
S31500004F700FF80DF105000FF0AFF980469DF80740D8
S31500004F80280006D0082239465046FDF7FCF90028CD
S31500004F9071D1DFF828793968C87E10B17078820738
S31500004FA012D5280010D0487B022808BF002C0BD150
S31500004FB0404607F005FF0CF0AEFB992300F0BFFB5F
S31500004FC0992001F0F2FB56E000F06CFD002818BFB6
S31500004FD0002C03D09420FFF794FA4CE000F062FD19
S31500004FE0002848D0484610F099F9FF2801D029003A
S31500004FF004D138684088494610F023FB10F070FB56
S315000050003868DFF8BC4841884A46404600F0AEFAA8
S31500005010DFF8B00890F90210090261853868417B13
S31500005020012916BF3129112143214173022001F0C4
S315000050304BFBDFF894080168FFF79EFC0EF0A7FF14
S31500005040002020743968C87E20B904F1180003F0E6
S315000050506FFE0EE02DB17078820702D5FFF7D2F908
S3150000506007E0087B042804D10521FFF785FC092009
S315000050702074AD21E17301F0EEFABDE8FF87000070
S31500005080CED20020F7D20020E7D20020D4FF0020A5
S315000050902DE9F04F8DB081460FF00BF807460FF063
S315000050A053F8019048460FF0A4F8824602AB052259
S315000050B005A9484610F0ECFF0228804621D0484654
S315000050C00EF0EDFF01999DF80820DFF8F06708184B
S315000050D08518681C8DF8000000F0F8F8EC1C012813
S315000050E04FF6FF7B0ED0022813D0042800F0C880AC
S315000050F006281CD0072876D0082829D07C2800F05E
S315000051008980DDE0EBB2002249460020FFF731FE40
S31500005110D6E03068417B012902BFDFF8A42710786A
S31500005120002803D1EAB24946FFF7F8FEC8E0504628
S315000051300EF0F1F9014658451CBF50460EF0FEFD33
S315000051403068417B022902D150460EF053FFB7E08A
S315000051509DF8001048460AF0D1F80746E1B24846E5
S315000051600AF0CCF80446AD1DE9B248460AF0C6F886
S3150000517058450546EBD00EF00AFF3068417B1329EF
S3150000518008D100F078FA48460FF033F80146204679
S3150000519010F057FA3068407B022818BF13281CD13C
S315000051A0284607F00DFE384607F012FE00210020C3
S315000051B000F000FA5146204600F01DFBDFF8040718
S315000051C0DFF80817C0780F28B4BF401C0F200870FE
S315000051D000F0BCF83068417B132971D12322427359
S315000051E006F03EFC6CE001980121384409F0B4FE5B
S315000051F0044600230022214601200EF007FF002866
S3150000520020465BD009F025FE05AA414648460BF02C
S3150000521011FB55E09DF8001000F059F80746AD1C4B
S3150000522000F054F8652F08BF6D2849D1DFF8A016A5
S315000052300A6812F80970E0B2B84241D20822514613
S3150000524003A8FDF752F86B460022E1B248460FF07C
S3150000525073F8A8BB9DF80000FF2831D0DFF874462C
S315000052600120207001F035FA9DF8001003A80EF019
S31500005270B5FE01F034FA002020709DF800001DE014
S3150000528048460EF0D4FF04460FF278600088ADF869
S315000052900A0000210191009102230DF10A02012169
S315000052A020460FF06EF9FF28054609D021460EF07C
S315000052B037FF002128460AF091FA284609F0C9FD71
S315000052C00DB0BDE8F08F000000F8FF07E9B24846D0
S315000052D009F060BF38B5022001F0F7F901F0FEF9D8
S315000052E0DFF8DC45DFF8D4550020207607F06EFEA7
S315000052F028B12968C87E10B9FFF784F820E007F0C6
S3150000530065FE10B900F0CEFB48B1207C38B1FFF73E
S3150000531032FB207C411E21740AF04FFB10E0286806
S31500005320417B132909D000F0BDFB30B92868407BCA
S3150000533011281CBF4328412802D1E07BFFF7E1F882
S31500005340F8E1DFF87C1500200874704710B501F00D
S31500005350DDF9FF28DFF8684503D0207D10B1012074
S3150000536000E000200EF0F2FB002060800822201DE5
S31500005370BDE810400021FCF7FFBF2DE9F843894640
S31500005380DFF83C45DFF83C8501210546617384B0B2
S31500005390174640460BF0F1F904F0D2FE00281ED164
S315000053A0012D01D028001BD100974B46262297A13C
S315000053B003200CF0DCFD01F08CF9DFF81C05046815
S315000053C03CB1012D08BF06F0F7FC39464846A04718
S315000053D003E03946484603F06BFA01F080F95FE0D6
S315000053E0DFF8D8643068407B23280DD100F0AFFA8F
S315000053F0044600F0B0FA214602F055FD022000F006
S31500005400B2FA0BF06DF84BE0002F49D121281CBFF2
S315000054100428532802D105F017FA41E000F042FBB8
S31500005420F0B10BF0EDF928B9207B00280CBFAB20BA
S3150000543094202AE011F017FB40460BF09EF928B1A4
S3150000544040F2C1610FF2AC400AF0ECFE2078002871
S31500005450404602D1FFF75CFA22E0FFF7C7FB1FE0E8
S315000054603068417B132916D100F0E6F8BDF800003C
S3150000547007F0AEFC00F0FFF83068017B032918BF87
S31500005480042905D1332141739620FFF73AF807E046
S31500005490FFF714F804E0042D04BF484612F028F97B
S315000054A04FF400600DF0B6FE10B90FF027FE08B1FC
S315000054B00AF0C8F905B0BDE8F08338B5DFF8FC534B
S315000054C004462868017BA14203D00473204601F0FC
S315000054D065F904F03CFD40B11CB9002004F033FD31
S315000054E00EE0012004F02FFD00E01CB12868017BCE
S315000054F0042905D101F0BCF8FF2808BF012000D01F
S315000055000020BDE832400AF085BC0000E8D2002049
S3150000551038B50C460546E07A11F02EF8FF2801D181
S315000055208A2032BD94F90A0000F0C8FA08B18B202F
S3150000553032BDDFF888030268E17A91730068A17AC8
S31500005540C173284607F03CFC4FF6FE7085420CBF3F
S315000055504FF6FF70208907F03BFC2089DFF86013C7
